{"contracts/PatientRecords.sol":{"PatientRecords":{"abi":[{"anonymous":false,"inputs":[{"indexed":false,"internalType":"string","name":"id","type":"string"},{"indexed":false,"internalType":"uint256","name":"timestamp","type":"uint256"}],"name":"PatientAdded","type":"event"},{"inputs":[{"internalType":"string","name":"_id","type":"string"},{"internalType":"string","name":"_name","type":"string"},{"internalType":"string","name":"_diagnosis","type":"string"}],"name":"addPatient","outputs":[],"stateMutability":"nonpayable","type":"function"},{"inputs":[{"internalType":"string","name":"_id","type":"string"}],"name":"getPatient","outputs":[{"internalType":"string","name":"id","type":"string"},{"internalType":"string","name":"name","type":"string"},{"internalType":"string","name":"diagnosis","type":"string"},{"internalType":"uint256","name":"timestamp","type":"uint256"}],"stateMutability":"view","type":"function"},{"inputs":[{"internalType":"string","name":"_id","type":"string"}],"name":"patientDoesExist","outputs":[{"internalType":"bool","name":"","type":"bool"}],"stateMutability":"view","type":"function"}],"evm":{"bytecode":{"linkReferences":{},"object":"608060405234801561001057600080fd5b50610cd1806100206000396000f3fe608060405234801561001057600080fd5b50600436106100415760003560e01c80630c380fc9146100465780634b96dec114610062578063e79a7a2e14610092575b600080fd5b610060600480360381019061005b919061064a565b6100c5565b005b61007c600480360381019061007791906106f1565b610239565b6040516100899190610755565b60405180910390f35b6100ac60048036038101906100a791906106f1565b61026e565b6040516100bc9493929190610808565b60405180910390f35b6001836040516100d5919061089e565b908152602001604051809103902060009054906101000a900460ff1615610131576040517f08c379a000000000000000000000000000000000000000000000000000000000815260040161012890610901565b60405180910390fd5b6000429050604051806080016040528085815260200184815260200183815260200182815250600085604051610167919061089e565b9081526020016040518091039020600082015181600001908161018a9190610b2d565b5060208201518160010190816101a09190610b2d565b5060408201518160020190816101b69190610b2d565b5060608201518160030155905050600180856040516101d5919061089e565b908152602001604051809103902060006101000a81548160ff0219169083151502179055507faaee5e16f938e76ad0568f8a0674f5c0c325d8d5502be320fbeb9e33ff04a0da848260405161022b929190610bff565b60405180910390a150505050565b600060018260405161024b919061089e565b908152602001604051809103902060009054906101000a900460ff169050919050565b60608060606000600185604051610285919061089e565b908152602001604051809103902060009054906101000a900460ff166102e0576040517f08c379a00000000000000000000000000000000000000000000000000000000081526004016102d790610c7b565b60405180910390fd5b600080866040516102f1919061089e565b908152602001604051809103902060405180608001604052908160008201805461031a90610950565b80601f016020809104026020016040519081016040528092919081815260200182805461034690610950565b80156103935780601f1061036857610100808354040283529160200191610393565b820191906000526020600020905b81548152906001019060200180831161037657829003601f168201915b505050505081526020016001820180546103ac90610950565b80601f01602080910402602001604051908101604052809291908181526020018280546103d890610950565b80156104255780601f106103fa57610100808354040283529160200191610425565b820191906000526020600020905b81548152906001019060200180831161040857829003601f168201915b5050505050815260200160028201805461043e90610950565b80601f016020809104026020016040519081016040528092919081815260200182805461046a90610950565b80156104b75780601f1061048c576101008083540402835291602001916104b7565b820191906000526020600020905b81548152906001019060200180831161049a57829003601f168201915b50505050508152602001600382015481525050905080600001518160200151826040015183606001519450945094509450509193509193565b6000604051905090565b600080fd5b600080fd5b600080fd5b600080fd5b6000601f19601f8301169050919050565b7f4e487b7100000000000000000000000000000000000000000000000000000000600052604160045260246000fd5b6105578261050e565b810181811067ffffffffffffffff821117156105765761057561051f565b5b80604052505050565b60006105896104f0565b9050610595828261054e565b919050565b600067ffffffffffffffff8211156105b5576105b461051f565b5b6105be8261050e565b9050602081019050919050565b82818337600083830152505050565b60006105ed6105e88461059a565b61057f565b90508281526020810184848401111561060957610608610509565b5b6106148482856105cb565b509392505050565b600082601f83011261063157610630610504565b5b81356106418482602086016105da565b91505092915050565b600080600060608486031215610663576106626104fa565b5b600084013567ffffffffffffffff811115610681576106806104ff565b5b61068d8682870161061c565b935050602084013567ffffffffffffffff8111156106ae576106ad6104ff565b5b6106ba8682870161061c565b925050604084013567ffffffffffffffff8111156106db576106da6104ff565b5b6106e78682870161061c565b9150509250925092565b600060208284031215610707576107066104fa565b5b600082013567ffffffffffffffff811115610725576107246104ff565b5b6107318482850161061c565b91505092915050565b60008115159050919050565b61074f8161073a565b82525050565b600060208201905061076a6000830184610746565b92915050565b600081519050919050565b600082825260208201905092915050565b60005b838110156107aa57808201518184015260208101905061078f565b60008484015250505050565b60006107c182610770565b6107cb818561077b565b93506107db81856020860161078c565b6107e48161050e565b840191505092915050565b6000819050919050565b610802816107ef565b82525050565b6000608082019050818103600083015261082281876107b6565b9050818103602083015261083681866107b6565b9050818103604083015261084a81856107b6565b905061085960608301846107f9565b95945050505050565b600081905092915050565b600061087882610770565b6108828185610862565b935061089281856020860161078c565b80840191505092915050565b60006108aa828461086d565b915081905092915050565b7f50617469656e7420616c72656164792065786973747300000000000000000000600082015250565b60006108eb60168361077b565b91506108f6826108b5565b602082019050919050565b6000602082019050818103600083015261091a816108de565b9050919050565b7f4e487b7100000000000000000000000000000000000000000000000000000000600052602260045260246000fd5b6000600282049050600182168061096857607f821691505b60208210810361097b5761097a610921565b5b50919050565b60008190508160005260206000209050919050565b60006020601f8301049050919050565b600082821b905092915050565b6000600883026109e37fffffffffffffffffffffffffffffffffffffffffffffffffffffffffffffffff826109a6565b6109ed86836109a6565b95508019841693508086168417925050509392505050565b6000819050919050565b6000610a2a610a25610a20846107ef565b610a05565b6107ef565b9050919050565b6000819050919050565b610a4483610a0f565b610a58610a5082610a31565b8484546109b3565b825550505050565b600090565b610a6d610a60565b610a78818484610a3b565b505050565b5b81811015610a9c57610a91600082610a65565b600181019050610a7e565b5050565b601f821115610ae157610ab281610981565b610abb84610996565b81016020851015610aca578190505b610ade610ad685610996565b830182610a7d565b50505b505050565b600082821c905092915050565b6000610b0460001984600802610ae6565b1980831691505092915050565b6000610b1d8383610af3565b9150826002028217905092915050565b610b3682610770565b67ffffffffffffffff811115610b4f57610b4e61051f565b5b610b598254610950565b610b64828285610aa0565b600060209050601f831160018114610b975760008415610b85578287015190505b610b8f8582610b11565b865550610bf7565b601f198416610ba586610981565b60005b82811015610bcd57848901518255600182019150602085019450602081019050610ba8565b86831015610bea5784890151610be6601f891682610af3565b8355505b6001600288020188555050505b505050505050565b60006040820190508181036000830152610c1981856107b6565b9050610c2860208301846107f9565b9392505050565b7f50617469656e7420646f6573206e6f7420657869737400000000000000000000600082015250565b6000610c6560168361077b565b9150610c7082610c2f565b602082019050919050565b60006020820190508181036000830152610c9481610c58565b905091905056fea26469706673582212209058c18fcce9d6db182ae7dd47eb38edfa26c88ec6d9ec5e4147ba02fe4c97fe64736f6c63430008150033","opcodes":"PUSH1 0x80 PUSH1 0x40 MSTORE CALLVALUE DUP1 ISZERO PUSH2 0x10 JUMPI PUSH1 0x0 DUP1 REVERT JUMPDEST POP PUSH2 0xCD1 DUP1 PUSH2 0x20 PUSH1 0x0 CODECOPY PUSH1 0x0 RETURN INVALID PUSH1 0x80 PUSH1 0x40 MSTORE CALLVALUE DUP1 ISZERO PUSH2 0x10 JUMPI PUSH1 0x0 DUP1 REVERT JUMPDEST POP PUSH1 0x4 CALLDATASIZE LT PUSH2 0x41 JUMPI PUSH1 0x0 CALLDATALOAD PUSH1 0xE0 SHR DUP1 PUSH4 0xC380FC9 EQ PUSH2 0x46 JUMPI DUP1 PUSH4 0x4B96DEC1 EQ PUSH2 0x62 JUMPI DUP1 PUSH4 0xE79A7A2E EQ PUSH2 0x92 JUMPI JUMPDEST PUSH1 0x0 DUP1 REVERT JUMPDEST PUSH2 0x60 PUSH1 0x4 DUP1 CALLDATASIZE SUB DUP2 ADD SWAP1 PUSH2 0x5B SWAP2 SWAP1 PUSH2 0x64A JUMP JUMPDEST PUSH2 0xC5 JUMP JUMPDEST STOP JUMPDEST PUSH2 0x7C PUSH1 0x4 DUP1 CALLDATASIZE SUB DUP2 ADD SWAP1 PUSH2 0x77 SWAP2 SWAP1 PUSH2 0x6F1 JUMP JUMPDEST PUSH2 0x239 JUMP JUMPDEST PUSH1 0x40 MLOAD PUSH2 0x89 SWAP2 SWAP1 PUSH2 0x755 JUMP JUMPDEST PUSH1 0x40 MLOAD DUP1 SWAP2 SUB SWAP1 RETURN JUMPDEST PUSH2 0xAC PUSH1 0x4 DUP1 CALLDATASIZE SUB DUP2 ADD SWAP1 PUSH2 0xA7 SWAP2 SWAP1 PUSH2 0x6F1 JUMP JUMPDEST PUSH2 0x26E JUMP JUMPDEST PUSH1 0x40 MLOAD PUSH2 0xBC SWAP5 SWAP4 SWAP3 SWAP2 SWAP1 PUSH2 0x808 JUMP JUMPDEST PUSH1 0x40 MLOAD DUP1 SWAP2 SUB SWAP1 RETURN JUMPDEST PUSH1 0x1 DUP4 PUSH1 0x40 MLOAD PUSH2 0xD5 SWAP2 SWAP1 PUSH2 0x89E JUMP JUMPDEST SWAP1 DUP2 MSTORE PUSH1 0x20 ADD PUSH1 0x40 MLOAD DUP1 SWAP2 SUB SWAP1 KECCAK256 PUSH1 0x0 SWAP1 SLOAD SWAP1 PUSH2 0x100 EXP SWAP1 DIV PUSH1 0xFF AND ISZERO PUSH2 0x131 JUMPI PUSH1 0x40 MLOAD PUSH32 0x8C379A000000000000000000000000000000000000000000000000000000000 DUP2 MSTORE PUSH1 0x4 ADD PUSH2 0x128 SWAP1 PUSH2 0x901 JUMP JUMPDEST PUSH1 0x40 MLOAD DUP1 SWAP2 SUB SWAP1 REVERT JUMPDEST PUSH1 0x0 TIMESTAMP SWAP1 POP PUSH1 0x40 MLOAD DUP1 PUSH1 0x80 ADD PUSH1 0x40 MSTORE DUP1 DUP6 DUP2 MSTORE PUSH1 0x20 ADD DUP5 DUP2 MSTORE PUSH1 0x20 ADD DUP4 DUP2 MSTORE PUSH1 0x20 ADD DUP3 DUP2 MSTORE POP PUSH1 0x0 DUP6 PUSH1 0x40 MLOAD PUSH2 0x167 SWAP2 SWAP1 PUSH2 0x89E JUMP JUMPDEST SWAP1 DUP2 MSTORE PUSH1 0x20 ADD PUSH1 0x40 MLOAD DUP1 SWAP2 SUB SWAP1 KECCAK256 PUSH1 0x0 DUP3 ADD MLOAD DUP2 PUSH1 0x0 ADD SWAP1 DUP2 PUSH2 0x18A SWAP2 SWAP1 PUSH2 0xB2D JUMP JUMPDEST POP PUSH1 0x20 DUP3 ADD MLOAD DUP2 PUSH1 0x1 ADD SWAP1 DUP2 PUSH2 0x1A0 SWAP2 SWAP1 PUSH2 0xB2D JUMP JUMPDEST POP PUSH1 0x40 DUP3 ADD MLOAD DUP2 PUSH1 0x2 ADD SWAP1 DUP2 PUSH2 0x1B6 SWAP2 SWAP1 PUSH2 0xB2D JUMP JUMPDEST POP PUSH1 0x60 DUP3 ADD MLOAD DUP2 PUSH1 0x3 ADD SSTORE SWAP1 POP POP PUSH1 0x1 DUP1 DUP6 PUSH1 0x40 MLOAD PUSH2 0x1D5 SWAP2 SWAP1 PUSH2 0x89E JUMP JUMPDEST SWAP1 DUP2 MSTORE PUSH1 0x20 ADD PUSH1 0x40 MLOAD DUP1 SWAP2 SUB SWAP1 KECCAK256 PUSH1 0x0 PUSH2 0x100 EXP DUP2 SLOAD DUP2 PUSH1 0xFF MUL NOT AND SWAP1 DUP4 ISZERO ISZERO MUL OR SWAP1 SSTORE POP PUSH32 0xAAEE5E16F938E76AD0568F8A0674F5C0C325D8D5502BE320FBEB9E33FF04A0DA DUP5 DUP3 PUSH1 0x40 MLOAD PUSH2 0x22B SWAP3 SWAP2 SWAP1 PUSH2 0xBFF JUMP JUMPDEST PUSH1 0x40 MLOAD DUP1 SWAP2 SUB SWAP1 LOG1 POP POP POP POP JUMP JUMPDEST PUSH1 0x0 PUSH1 0x1 DUP3 PUSH1 0x40 MLOAD PUSH2 0x24B SWAP2 SWAP1 PUSH2 0x89E JUMP JUMPDEST SWAP1 DUP2 MSTORE PUSH1 0x20 ADD PUSH1 0x40 MLOAD DUP1 SWAP2 SUB SWAP1 KECCAK256 PUSH1 0x0 SWAP1 SLOAD SWAP1 PUSH2 0x100 EXP SWAP1 DIV PUSH1 0xFF AND SWAP1 POP SWAP2 SWAP1 POP JUMP JUMPDEST PUSH1 0x60 DUP1 PUSH1 0x60 PUSH1 0x0 PUSH1 0x1 DUP6 PUSH1 0x40 MLOAD PUSH2 0x285 SWAP2 SWAP1 PUSH2 0x89E JUMP JUMPDEST SWAP1 DUP2 MSTORE PUSH1 0x20 ADD PUSH1 0x40 MLOAD DUP1 SWAP2 SUB SWAP1 KECCAK256 PUSH1 0x0 SWAP1 SLOAD SWAP1 PUSH2 0x100 EXP SWAP1 DIV PUSH1 0xFF AND PUSH2 0x2E0 JUMPI PUSH1 0x40 MLOAD PUSH32 0x8C379A000000000000000000000000000000000000000000000000000000000 DUP2 MSTORE PUSH1 0x4 ADD PUSH2 0x2D7 SWAP1 PUSH2 0xC7B JUMP JUMPDEST PUSH1 0x40 MLOAD DUP1 SWAP2 SUB SWAP1 REVERT JUMPDEST PUSH1 0x0 DUP1 DUP7 PUSH1 0x40 MLOAD PUSH2 0x2F1 SWAP2 SWAP1 PUSH2 0x89E JUMP JUMPDEST SWAP1 DUP2 MSTORE PUSH1 0x20 ADD PUSH1 0x40 MLOAD DUP1 SWAP2 SUB SWAP1 KECCAK256 PUSH1 0x40 MLOAD DUP1 PUSH1 0x80 ADD PUSH1 0x40 MSTORE SWAP1 DUP2 PUSH1 0x0 DUP3 ADD DUP1 SLOAD PUSH2 0x31A SWAP1 PUSH2 0x950 JUMP JUMPDEST DUP1 PUSH1 0x1F ADD PUSH1 0x20 DUP1 SWAP2 DIV MUL PUSH1 0x20 ADD PUSH1 0x40 MLOAD SWAP1 DUP2 ADD PUSH1 0x40 MSTORE DUP1 SWAP3 SWAP2 SWAP1 DUP2 DUP2 MSTORE PUSH1 0x20 ADD DUP3 DUP1 SLOAD PUSH2 0x346 SWAP1 PUSH2 0x950 JUMP JUMPDEST DUP1 ISZERO PUSH2 0x393 JUMPI DUP1 PUSH1 0x1F LT PUSH2 0x368 JUMPI PUSH2 0x100 DUP1 DUP4 SLOAD DIV MUL DUP4 MSTORE SWAP2 PUSH1 0x20 ADD SWAP2 PUSH2 0x393 JUMP JUMPDEST DUP3 ADD SWAP2 SWAP1 PUSH1 0x0 MSTORE PUSH1 0x20 PUSH1 0x0 KECCAK256 SWAP1 JUMPDEST DUP2 SLOAD DUP2 MSTORE SWAP1 PUSH1 0x1 ADD SWAP1 PUSH1 0x20 ADD DUP1 DUP4 GT PUSH2 0x376 JUMPI DUP3 SWAP1 SUB PUSH1 0x1F AND DUP3 ADD SWAP2 JUMPDEST POP POP POP POP POP DUP2 MSTORE PUSH1 0x20 ADD PUSH1 0x1 DUP3 ADD DUP1 SLOAD PUSH2 0x3AC SWAP1 PUSH2 0x950 JUMP JUMPDEST DUP1 PUSH1 0x1F ADD PUSH1 0x20 DUP1 SWAP2 DIV MUL PUSH1 0x20 ADD PUSH1 0x40 MLOAD SWAP1 DUP2 ADD PUSH1 0x40 MSTORE DUP1 SWAP3 SWAP2 SWAP1 DUP2 DUP2 MSTORE PUSH1 0x20 ADD DUP3 DUP1 SLOAD PUSH2 0x3D8 SWAP1 PUSH2 0x950 JUMP JUMPDEST DUP1 ISZERO PUSH2 0x425 JUMPI DUP1 PUSH1 0x1F LT PUSH2 0x3FA JUMPI PUSH2 0x100 DUP1 DUP4 SLOAD DIV MUL DUP4 MSTORE SWAP2 PUSH1 0x20 ADD SWAP2 PUSH2 0x425 JUMP JUMPDEST DUP3 ADD SWAP2 SWAP1 PUSH1 0x0 MSTORE PUSH1 0x20 PUSH1 0x0 KECCAK256 SWAP1 JUMPDEST DUP2 SLOAD DUP2 MSTORE SWAP1 PUSH1 0x1 ADD SWAP1 PUSH1 0x20 ADD DUP1 DUP4 GT PUSH2 0x408 JUMPI DUP3 SWAP1 SUB PUSH1 0x1F AND DUP3 ADD SWAP2 JUMPDEST POP POP POP POP POP DUP2 MSTORE PUSH1 0x20 ADD PUSH1 0x2 DUP3 ADD DUP1 SLOAD PUSH2 0x43E SWAP1 PUSH2 0x950 JUMP JUMPDEST DUP1 PUSH1 0x1F ADD PUSH1 0x20 DUP1 SWAP2 DIV MUL PUSH1 0x20 ADD PUSH1 0x40 MLOAD SWAP1 DUP2 ADD PUSH1 0x40 MSTORE DUP1 SWAP3 SWAP2 SWAP1 DUP2 DUP2 MSTORE PUSH1 0x20 ADD DUP3 DUP1 SLOAD PUSH2 0x46A SWAP1 PUSH2 0x950 JUMP JUMPDEST DUP1 ISZERO PUSH2 0x4B7 JUMPI DUP1 PUSH1 0x1F LT PUSH2 0x48C JUMPI PUSH2 0x100 DUP1 DUP4 SLOAD DIV MUL DUP4 MSTORE SWAP2 PUSH1 0x20 ADD SWAP2 PUSH2 0x4B7 JUMP JUMPDEST DUP3 ADD SWAP2 SWAP1 PUSH1 0x0 MSTORE PUSH1 0x20 PUSH1 0x0 KECCAK256 SWAP1 JUMPDEST DUP2 SLOAD DUP2 MSTORE SWAP1 PUSH1 0x1 ADD SWAP1 PUSH1 0x20 ADD DUP1 DUP4 GT PUSH2 0x49A JUMPI DUP3 SWAP1 SUB PUSH1 0x1F AND DUP3 ADD SWAP2 JUMPDEST POP POP POP POP POP DUP2 MSTORE PUSH1 0x20 ADD PUSH1 0x3 DUP3 ADD SLOAD DUP2 MSTORE POP POP SWAP1 POP DUP1 PUSH1 0x0 ADD MLOAD DUP2 PUSH1 0x20 ADD MLOAD DUP3 PUSH1 0x40 ADD MLOAD DUP4 PUSH1 0x60 ADD MLOAD SWAP5 POP SWAP5 POP SWAP5 POP SWAP5 POP POP SWAP2 SWAP4 POP SWAP2 SWAP4 JUMP JUMPDEST PUSH1 0x0 PUSH1 0x40 MLOAD SWAP1 POP SWAP1 JUMP JUMPDEST PUSH1 0x0 DUP1 REVERT JUMPDEST PUSH1 0x0 DUP1 REVERT JUMPDEST PUSH1 0x0 DUP1 REVERT JUMPDEST PUSH1 0x0 DUP1 REVERT JUMPDEST PUSH1 0x0 PUSH1 0x1F NOT PUSH1 0x1F DUP4 ADD AND SWAP1 POP SWAP2 SWAP1 POP JUMP JUMPDEST PUSH32 0x4E487B7100000000000000000000000000000000000000000000000000000000 PUSH1 0x0 MSTORE PUSH1 0x41 PUSH1 0x4 MSTORE PUSH1 0x24 PUSH1 0x0 REVERT JUMPDEST PUSH2 0x557 DUP3 PUSH2 0x50E JUMP JUMPDEST DUP2 ADD DUP2 DUP2 LT PUSH8 0xFFFFFFFFFFFFFFFF DUP3 GT OR ISZERO PUSH2 0x576 JUMPI PUSH2 0x575 PUSH2 0x51F JUMP JUMPDEST JUMPDEST DUP1 PUSH1 0x40 MSTORE POP POP POP JUMP JUMPDEST PUSH1 0x0 PUSH2 0x589 PUSH2 0x4F0 JUMP JUMPDEST SWAP1 POP PUSH2 0x595 DUP3 DUP3 PUSH2 0x54E JUMP JUMPDEST SWAP2 SWAP1 POP JUMP JUMPDEST PUSH1 0x0 PUSH8 0xFFFFFFFFFFFFFFFF DUP3 GT ISZERO PUSH2 0x5B5 JUMPI PUSH2 0x5B4 PUSH2 0x51F JUMP JUMPDEST JUMPDEST PUSH2 0x5BE DUP3 PUSH2 0x50E JUMP JUMPDEST SWAP1 POP PUSH1 0x20 DUP2 ADD SWAP1 POP SWAP2 SWAP1 POP JUMP JUMPDEST DUP3 DUP2 DUP4 CALLDATACOPY PUSH1 0x0 DUP4 DUP4 ADD MSTORE POP POP POP JUMP JUMPDEST PUSH1 0x0 PUSH2 0x5ED PUSH2 0x5E8 DUP5 PUSH2 0x59A JUMP JUMPDEST PUSH2 0x57F JUMP JUMPDEST SWAP1 POP DUP3 DUP2 MSTORE PUSH1 0x20 DUP2 ADD DUP5 DUP5 DUP5 ADD GT ISZERO PUSH2 0x609 JUMPI PUSH2 0x608 PUSH2 0x509 JUMP JUMPDEST JUMPDEST PUSH2 0x614 DUP5 DUP3 DUP6 PUSH2 0x5CB JUMP JUMPDEST POP SWAP4 SWAP3 POP POP POP JUMP JUMPDEST PUSH1 0x0 DUP3 PUSH1 0x1F DUP4 ADD SLT PUSH2 0x631 JUMPI PUSH2 0x630 PUSH2 0x504 JUMP JUMPDEST JUMPDEST DUP2 CALLDATALOAD PUSH2 0x641 DUP5 DUP3 PUSH1 0x20 DUP7 ADD PUSH2 0x5DA JUMP JUMPDEST SWAP2 POP POP SWAP3 SWAP2 POP POP JUMP JUMPDEST PUSH1 0x0 DUP1 PUSH1 0x0 PUSH1 0x60 DUP5 DUP7 SUB SLT ISZERO PUSH2 0x663 JUMPI PUSH2 0x662 PUSH2 0x4FA JUMP JUMPDEST JUMPDEST PUSH1 0x0 DUP5 ADD CALLDATALOAD PUSH8 0xFFFFFFFFFFFFFFFF DUP2 GT ISZERO PUSH2 0x681 JUMPI PUSH2 0x680 PUSH2 0x4FF JUMP JUMPDEST JUMPDEST PUSH2 0x68D DUP7 DUP3 DUP8 ADD PUSH2 0x61C JUMP JUMPDEST SWAP4 POP POP PUSH1 0x20 DUP5 ADD CALLDATALOAD PUSH8 0xFFFFFFFFFFFFFFFF DUP2 GT ISZERO PUSH2 0x6AE JUMPI PUSH2 0x6AD PUSH2 0x4FF JUMP JUMPDEST JUMPDEST PUSH2 0x6BA DUP7 DUP3 DUP8 ADD PUSH2 0x61C JUMP JUMPDEST SWAP3 POP POP PUSH1 0x40 DUP5 ADD CALLDATALOAD PUSH8 0xFFFFFFFFFFFFFFFF DUP2 GT ISZERO PUSH2 0x6DB JUMPI PUSH2 0x6DA PUSH2 0x4FF JUMP JUMPDEST JUMPDEST PUSH2 0x6E7 DUP7 DUP3 DUP8 ADD PUSH2 0x61C JUMP JUMPDEST SWAP2 POP POP SWAP3 POP SWAP3 POP SWAP3 JUMP JUMPDEST PUSH1 0x0 PUSH1 0x20 DUP3 DUP5 SUB SLT ISZERO PUSH2 0x707 JUMPI PUSH2 0x706 PUSH2 0x4FA JUMP JUMPDEST JUMPDEST PUSH1 0x0 DUP3 ADD CALLDATALOAD PUSH8 0xFFFFFFFFFFFFFFFF DUP2 GT ISZERO PUSH2 0x725 JUMPI PUSH2 0x724 PUSH2 0x4FF JUMP JUMPDEST JUMPDEST PUSH2 0x731 DUP5 DUP3 DUP6 ADD PUSH2 0x61C JUMP JUMPDEST SWAP2 POP POP SWAP3 SWAP2 POP POP JUMP JUMPDEST PUSH1 0x0 DUP2 ISZERO ISZERO SWAP1 POP SWAP2 SWAP1 POP JUMP JUMPDEST PUSH2 0x74F DUP2 PUSH2 0x73A JUMP JUMPDEST DUP3 MSTORE POP POP JUMP JUMPDEST PUSH1 0x0 PUSH1 0x20 DUP3 ADD SWAP1 POP PUSH2 0x76A PUSH1 0x0 DUP4 ADD DUP5 PUSH2 0x746 JUMP JUMPDEST SWAP3 SWAP2 POP POP JUMP JUMPDEST PUSH1 0x0 DUP2 MLOAD SWAP1 POP SWAP2 SWAP1 POP JUMP JUMPDEST PUSH1 0x0 DUP3 DUP3 MSTORE PUSH1 0x20 DUP3 ADD SWAP1 POP SWAP3 SWAP2 POP POP JUMP JUMPDEST PUSH1 0x0 JUMPDEST DUP4 DUP2 LT ISZERO PUSH2 0x7AA JUMPI DUP1 DUP3 ADD MLOAD DUP2 DUP5 ADD MSTORE PUSH1 0x20 DUP2 ADD SWAP1 POP PUSH2 0x78F JUMP JUMPDEST PUSH1 0x0 DUP5 DUP5 ADD MSTORE POP POP POP POP JUMP JUMPDEST PUSH1 0x0 PUSH2 0x7C1 DUP3 PUSH2 0x770 JUMP JUMPDEST PUSH2 0x7CB DUP2 DUP6 PUSH2 0x77B JUMP JUMPDEST SWAP4 POP PUSH2 0x7DB DUP2 DUP6 PUSH1 0x20 DUP7 ADD PUSH2 0x78C JUMP JUMPDEST PUSH2 0x7E4 DUP2 PUSH2 0x50E JUMP JUMPDEST DUP5 ADD SWAP2 POP POP SWAP3 SWAP2 POP POP JUMP JUMPDEST PUSH1 0x0 DUP2 SWAP1 POP SWAP2 SWAP1 POP JUMP JUMPDEST PUSH2 0x802 DUP2 PUSH2 0x7EF JUMP JUMPDEST DUP3 MSTORE POP POP JUMP JUMPDEST PUSH1 0x0 PUSH1 0x80 DUP3 ADD SWAP1 POP DUP2 DUP2 SUB PUSH1 0x0 DUP4 ADD MSTORE PUSH2 0x822 DUP2 DUP8 PUSH2 0x7B6 JUMP JUMPDEST SWAP1 POP DUP2 DUP2 SUB PUSH1 0x20 DUP4 ADD MSTORE PUSH2 0x836 DUP2 DUP7 PUSH2 0x7B6 JUMP JUMPDEST SWAP1 POP DUP2 DUP2 SUB PUSH1 0x40 DUP4 ADD MSTORE PUSH2 0x84A DUP2 DUP6 PUSH2 0x7B6 JUMP JUMPDEST SWAP1 POP PUSH2 0x859 PUSH1 0x60 DUP4 ADD DUP5 PUSH2 0x7F9 JUMP JUMPDEST SWAP6 SWAP5 POP POP POP POP POP JUMP JUMPDEST PUSH1 0x0 DUP2 SWAP1 POP SWAP3 SWAP2 POP POP JUMP JUMPDEST PUSH1 0x0 PUSH2 0x878 DUP3 PUSH2 0x770 JUMP JUMPDEST PUSH2 0x882 DUP2 DUP6 PUSH2 0x862 JUMP JUMPDEST SWAP4 POP PUSH2 0x892 DUP2 DUP6 PUSH1 0x20 DUP7 ADD PUSH2 0x78C JUMP JUMPDEST DUP1 DUP5 ADD SWAP2 POP POP SWAP3 SWAP2 POP POP JUMP JUMPDEST PUSH1 0x0 PUSH2 0x8AA DUP3 DUP5 PUSH2 0x86D JUMP JUMPDEST SWAP2 POP DUP2 SWAP1 POP SWAP3 SWAP2 POP POP JUMP JUMPDEST PUSH32 0x50617469656E7420616C72656164792065786973747300000000000000000000 PUSH1 0x0 DUP3 ADD MSTORE POP JUMP JUMPDEST PUSH1 0x0 PUSH2 0x8EB PUSH1 0x16 DUP4 PUSH2 0x77B JUMP JUMPDEST SWAP2 POP PUSH2 0x8F6 DUP3 PUSH2 0x8B5 JUMP JUMPDEST PUSH1 0x20 DUP3 ADD SWAP1 POP SWAP2 SWAP1 POP JUMP JUMPDEST PUSH1 0x0 PUSH1 0x20 DUP3 ADD SWAP1 POP DUP2 DUP2 SUB PUSH1 0x0 DUP4 ADD MSTORE PUSH2 0x91A DUP2 PUSH2 0x8DE JUMP JUMPDEST SWAP1 POP SWAP2 SWAP1 POP JUMP JUMPDEST PUSH32 0x4E487B7100000000000000000000000000000000000000000000000000000000 PUSH1 0x0 MSTORE PUSH1 0x22 PUSH1 0x4 MSTORE PUSH1 0x24 PUSH1 0x0 REVERT JUMPDEST PUSH1 0x0 PUSH1 0x2 DUP3 DIV SWAP1 POP PUSH1 0x1 DUP3 AND DUP1 PUSH2 0x968 JUMPI PUSH1 0x7F DUP3 AND SWAP2 POP JUMPDEST PUSH1 0x20 DUP3 LT DUP2 SUB PUSH2 0x97B JUMPI PUSH2 0x97A PUSH2 0x921 JUMP JUMPDEST JUMPDEST POP SWAP2 SWAP1 POP JUMP JUMPDEST PUSH1 0x0 DUP2 SWAP1 POP DUP2 PUSH1 0x0 MSTORE PUSH1 0x20 PUSH1 0x0 KECCAK256 SWAP1 POP SWAP2 SWAP1 POP JUMP JUMPDEST PUSH1 0x0 PUSH1 0x20 PUSH1 0x1F DUP4 ADD DIV SWAP1 POP SWAP2 SWAP1 POP JUMP JUMPDEST PUSH1 0x0 DUP3 DUP3 SHL SWAP1 POP SWAP3 SWAP2 POP POP JUMP JUMPDEST PUSH1 0x0 PUSH1 0x8 DUP4 MUL PUSH2 0x9E3 PUSH32 0xFFFFFFFFFFFFFFFFFFFFFFFFFFFFFFFFFFFFFFFFFFFFFFFFFFFFFFFFFFFFFFFF DUP3 PUSH2 0x9A6 JUMP JUMPDEST PUSH2 0x9ED DUP7 DUP4 PUSH2 0x9A6 JUMP JUMPDEST SWAP6 POP DUP1 NOT DUP5 AND SWAP4 POP DUP1 DUP7 AND DUP5 OR SWAP3 POP POP POP SWAP4 SWAP3 POP POP POP JUMP JUMPDEST PUSH1 0x0 DUP2 SWAP1 POP SWAP2 SWAP1 POP JUMP JUMPDEST PUSH1 0x0 PUSH2 0xA2A PUSH2 0xA25 PUSH2 0xA20 DUP5 PUSH2 0x7EF JUMP JUMPDEST PUSH2 0xA05 JUMP JUMPDEST PUSH2 0x7EF JUMP JUMPDEST SWAP1 POP SWAP2 SWAP1 POP JUMP JUMPDEST PUSH1 0x0 DUP2 SWAP1 POP SWAP2 SWAP1 POP JUMP JUMPDEST PUSH2 0xA44 DUP4 PUSH2 0xA0F JUMP JUMPDEST PUSH2 0xA58 PUSH2 0xA50 DUP3 PUSH2 0xA31 JUMP JUMPDEST DUP5 DUP5 SLOAD PUSH2 0x9B3 JUMP JUMPDEST DUP3 SSTORE POP POP POP POP JUMP JUMPDEST PUSH1 0x0 SWAP1 JUMP JUMPDEST PUSH2 0xA6D PUSH2 0xA60 JUMP JUMPDEST PUSH2 0xA78 DUP2 DUP5 DUP5 PUSH2 0xA3B JUMP JUMPDEST POP POP POP JUMP JUMPDEST JUMPDEST DUP2 DUP2 LT ISZERO PUSH2 0xA9C JUMPI PUSH2 0xA91 PUSH1 0x0 DUP3 PUSH2 0xA65 JUMP JUMPDEST PUSH1 0x1 DUP2 ADD SWAP1 POP PUSH2 0xA7E JUMP JUMPDEST POP POP JUMP JUMPDEST PUSH1 0x1F DUP3 GT ISZERO PUSH2 0xAE1 JUMPI PUSH2 0xAB2 DUP2 PUSH2 0x981 JUMP JUMPDEST PUSH2 0xABB DUP5 PUSH2 0x996 JUMP JUMPDEST DUP2 ADD PUSH1 0x20 DUP6 LT ISZERO PUSH2 0xACA JUMPI DUP2 SWAP1 POP JUMPDEST PUSH2 0xADE PUSH2 0xAD6 DUP6 PUSH2 0x996 JUMP JUMPDEST DUP4 ADD DUP3 PUSH2 0xA7D JUMP JUMPDEST POP POP JUMPDEST POP POP POP JUMP JUMPDEST PUSH1 0x0 DUP3 DUP3 SHR SWAP1 POP SWAP3 SWAP2 POP POP JUMP JUMPDEST PUSH1 0x0 PUSH2 0xB04 PUSH1 0x0 NOT DUP5 PUSH1 0x8 MUL PUSH2 0xAE6 JUMP JUMPDEST NOT DUP1 DUP4 AND SWAP2 POP POP SWAP3 SWAP2 POP POP JUMP JUMPDEST PUSH1 0x0 PUSH2 0xB1D DUP4 DUP4 PUSH2 0xAF3 JUMP JUMPDEST SWAP2 POP DUP3 PUSH1 0x2 MUL DUP3 OR SWAP1 POP SWAP3 SWAP2 POP POP JUMP JUMPDEST PUSH2 0xB36 DUP3 PUSH2 0x770 JUMP JUMPDEST PUSH8 0xFFFFFFFFFFFFFFFF DUP2 GT ISZERO PUSH2 0xB4F JUMPI PUSH2 0xB4E PUSH2 0x51F JUMP JUMPDEST JUMPDEST PUSH2 0xB59 DUP3 SLOAD PUSH2 0x950 JUMP JUMPDEST PUSH2 0xB64 DUP3 DUP3 DUP6 PUSH2 0xAA0 JUMP JUMPDEST PUSH1 0x0 PUSH1 0x20 SWAP1 POP PUSH1 0x1F DUP4 GT PUSH1 0x1 DUP2 EQ PUSH2 0xB97 JUMPI PUSH1 0x0 DUP5 ISZERO PUSH2 0xB85 JUMPI DUP3 DUP8 ADD MLOAD SWAP1 POP JUMPDEST PUSH2 0xB8F DUP6 DUP3 PUSH2 0xB11 JUMP JUMPDEST DUP7 SSTORE POP PUSH2 0xBF7 JUMP JUMPDEST PUSH1 0x1F NOT DUP5 AND PUSH2 0xBA5 DUP7 PUSH2 0x981 JUMP JUMPDEST PUSH1 0x0 JUMPDEST DUP3 DUP2 LT ISZERO PUSH2 0xBCD JUMPI DUP5 DUP10 ADD MLOAD DUP3 SSTORE PUSH1 0x1 DUP3 ADD SWAP2 POP PUSH1 0x20 DUP6 ADD SWAP5 POP PUSH1 0x20 DUP2 ADD SWAP1 POP PUSH2 0xBA8 JUMP JUMPDEST DUP7 DUP4 LT ISZERO PUSH2 0xBEA JUMPI DUP5 DUP10 ADD MLOAD PUSH2 0xBE6 PUSH1 0x1F DUP10 AND DUP3 PUSH2 0xAF3 JUMP JUMPDEST DUP4 SSTORE POP JUMPDEST PUSH1 0x1 PUSH1 0x2 DUP9 MUL ADD DUP9 SSTORE POP POP POP JUMPDEST POP POP POP POP POP POP JUMP JUMPDEST PUSH1 0x0 PUSH1 0x40 DUP3 ADD SWAP1 POP DUP2 DUP2 SUB PUSH1 0x0 DUP4 ADD MSTORE PUSH2 0xC19 DUP2 DUP6 PUSH2 0x7B6 JUMP JUMPDEST SWAP1 POP PUSH2 0xC28 PUSH1 0x20 DUP4 ADD DUP5 PUSH2 0x7F9 JUMP JUMPDEST SWAP4 SWAP3 POP POP POP JUMP JUMPDEST PUSH32 0x50617469656E7420646F6573206E6F7420657869737400000000000000000000 PUSH1 0x0 DUP3 ADD MSTORE POP JUMP JUMPDEST PUSH1 0x0 PUSH2 0xC65 PUSH1 0x16 DUP4 PUSH2 0x77B JUMP JUMPDEST SWAP2 POP PUSH2 0xC70 DUP3 PUSH2 0xC2F JUMP JUMPDEST PUSH1 0x20 DUP3 ADD SWAP1 POP SWAP2 SWAP1 POP JUMP JUMPDEST PUSH1 0x0 PUSH1 0x20 DUP3 ADD SWAP1 POP DUP2 DUP2 SUB PUSH1 0x0 DUP4 ADD MSTORE PUSH2 0xC94 DUP2 PUSH2 0xC58 JUMP JUMPDEST SWAP1 POP SWAP2 SWAP1 POP JUMP INVALID LOG2 PUSH5 0x6970667358 0x22 SLT KECCAK256 SWAP1 PC 0xC1 DUP16 0xCC 0xE9 0xD6 0xDB XOR 0x2A 0xE7 0xDD SELFBALANCE 0xEB CODESIZE 0xED STATICCALL 0x26 0xC8 DUP15 0xC6 0xD9 0xEC 0x5E COINBASE SELFBALANCE 0xBA MUL INVALID 0x4C SWAP8 INVALID PUSH5 0x736F6C6343 STOP ADDMOD ISZERO STOP CALLER "},"methodIdentifiers":{"addPatient(string,string,string)":"0c380fc9","getPatient(string)":"e79a7a2e","patientDoesExist(string)":"4b96dec1"}}}}}