{
  "abi": [
    {
      "anonymous": false,
      "inputs": [
        {
          "indexed": false,
          "internalType": "string",
          "name": "id",
          "type": "string"
        },
        {
          "indexed": false,
          "internalType": "uint256",
          "name": "timestamp",
          "type": "uint256"
        }
      ],
      "name": "PatientAdded",
      "type": "event"
    },
    {
      "inputs": [
        {
          "internalType": "string",
          "name": "_id",
          "type": "string"
        },
        {
          "internalType": "string",
          "name": "_name",
          "type": "string"
        },
        {
          "internalType": "string",
          "name": "_diagnosis",
          "type": "string"
        }
      ],
      "name": "addPatient",
      "outputs": [],
      "stateMutability": "nonpayable",
      "type": "function"
    },
    {
      "inputs": [
        {
          "internalType": "string",
          "name": "_id",
          "type": "string"
        }
      ],
      "name": "getPatient",
      "outputs": [
        {
          "internalType": "string",
          "name": "id",
          "type": "string"
        },
        {
          "internalType": "string",
          "name": "name",
          "type": "string"
        },
        {
          "internalType": "string",
          "name": "diagnosis",
          "type": "string"
        },
        {
          "internalType": "uint256",
          "name": "timestamp",
          "type": "uint256"
        }
      ],
      "stateMutability": "view",
      "type": "function"
    },
    {
      "inputs": [
        {
          "internalType": "string",
          "name": "_id",
          "type": "string"
        }
      ],
      "name": "patientDoesExist",
      "outputs": [
        {
          "internalType": "bool",
          "name": "",
          "type": "bool"
        }
      ],
      "stateMutability": "view",
      "type": "function"
    }
  ],
  "devdoc": {
    "kind": "dev",
    "methods": {},
    "version": 1
  },
  "evm": {
    "assembly": "    /* \"PatientRecords.sol\":57:1352  contract PatientRecords {... */\n  mstore(0x40, 0x80)\n  callvalue\n  dup1\n  iszero\n  tag_1\n  jumpi\n  revert(0x00, 0x00)\ntag_1:\n  pop\n  dataSize(sub_0)\n  dup1\n  dataOffset(sub_0)\n  0x00\n  codecopy\n  0x00\n  return\nstop\n\nsub_0: assembly {\n        /* \"PatientRecords.sol\":57:1352  contract PatientRecords {... */\n      mstore(0x40, 0x80)\n      callvalue\n      dup1\n      iszero\n      tag_1\n      jumpi\n      revert(0x00, 0x00)\n    tag_1:\n      pop\n      jumpi(tag_2, lt(calldatasize, 0x04))\n      shr(0xe0, calldataload(0x00))\n      dup1\n      0x0c380fc9\n      eq\n      tag_3\n      jumpi\n      dup1\n      0x4b96dec1\n      eq\n      tag_4\n      jumpi\n      dup1\n      0xe79a7a2e\n      eq\n      tag_5\n      jumpi\n    tag_2:\n      revert(0x00, 0x00)\n        /* \"PatientRecords.sol\":376:779  function addPatient(... */\n    tag_3:\n      tag_6\n      0x04\n      dup1\n      calldatasize\n      sub\n      dup2\n      add\n      swap1\n      tag_7\n      swap2\n      swap1\n      tag_8\n      jump\t// in\n    tag_7:\n      tag_9\n      jump\t// in\n    tag_6:\n      stop\n        /* \"PatientRecords.sol\":1236:1350  function patientDoesExist(string memory _id) public view returns (bool) {... */\n    tag_4:\n      tag_10\n      0x04\n      dup1\n      calldatasize\n      sub\n      dup2\n      add\n      swap1\n      tag_11\n      swap2\n      swap1\n      tag_12\n      jump\t// in\n    tag_11:\n      tag_13\n      jump\t// in\n    tag_10:\n      mload(0x40)\n      tag_14\n      swap2\n      swap1\n      tag_15\n      jump\t// in\n    tag_14:\n      mload(0x40)\n      dup1\n      swap2\n      sub\n      swap1\n      return\n        /* \"PatientRecords.sol\":789:1226  function getPatient(string memory _id) public view returns (... */\n    tag_5:\n      tag_16\n      0x04\n      dup1\n      calldatasize\n      sub\n      dup2\n      add\n      swap1\n      tag_17\n      swap2\n      swap1\n      tag_12\n      jump\t// in\n    tag_17:\n      tag_18\n      jump\t// in\n    tag_16:\n      mload(0x40)\n      tag_19\n      swap5\n      swap4\n      swap3\n      swap2\n      swap1\n      tag_20\n      jump\t// in\n    tag_19:\n      mload(0x40)\n      dup1\n      swap2\n      sub\n      swap1\n      return\n        /* \"PatientRecords.sol\":376:779  function addPatient(... */\n    tag_9:\n        /* \"PatientRecords.sol\":518:531  patientExists */\n      0x01\n        /* \"PatientRecords.sol\":532:535  _id */\n      dup4\n        /* \"PatientRecords.sol\":518:536  patientExists[_id] */\n      mload(0x40)\n      tag_22\n      swap2\n      swap1\n      tag_23\n      jump\t// in\n    tag_22:\n      swap1\n      dup2\n      mstore\n      0x20\n      add\n      mload(0x40)\n      dup1\n      swap2\n      sub\n      swap1\n      keccak256\n      0x00\n      swap1\n      sload\n      swap1\n      0x0100\n      exp\n      swap1\n      div\n      0xff\n      and\n        /* \"PatientRecords.sol\":517:536  !patientExists[_id] */\n      iszero\n        /* \"PatientRecords.sol\":509:563  require(!patientExists[_id], \"Patient already exists\") */\n      tag_24\n      jumpi\n      mload(0x40)\n      0x08c379a000000000000000000000000000000000000000000000000000000000\n      dup2\n      mstore\n      0x04\n      add\n      tag_25\n      swap1\n      tag_26\n      jump\t// in\n    tag_25:\n      mload(0x40)\n      dup1\n      swap2\n      sub\n      swap1\n      revert\n    tag_24:\n        /* \"PatientRecords.sol\":582:599  uint256 timestamp */\n      0x00\n        /* \"PatientRecords.sol\":602:617  block.timestamp */\n      timestamp\n        /* \"PatientRecords.sol\":582:617  uint256 timestamp = block.timestamp */\n      swap1\n      pop\n        /* \"PatientRecords.sol\":643:685  Patient(_id, _name, _diagnosis, timestamp) */\n      mload(0x40)\n      dup1\n      0x80\n      add\n      0x40\n      mstore\n      dup1\n        /* \"PatientRecords.sol\":651:654  _id */\n      dup6\n        /* \"PatientRecords.sol\":643:685  Patient(_id, _name, _diagnosis, timestamp) */\n      dup2\n      mstore\n      0x20\n      add\n        /* \"PatientRecords.sol\":656:661  _name */\n      dup5\n        /* \"PatientRecords.sol\":643:685  Patient(_id, _name, _diagnosis, timestamp) */\n      dup2\n      mstore\n      0x20\n      add\n        /* \"PatientRecords.sol\":663:673  _diagnosis */\n      dup4\n        /* \"PatientRecords.sol\":643:685  Patient(_id, _name, _diagnosis, timestamp) */\n      dup2\n      mstore\n      0x20\n      add\n        /* \"PatientRecords.sol\":675:684  timestamp */\n      dup3\n        /* \"PatientRecords.sol\":643:685  Patient(_id, _name, _diagnosis, timestamp) */\n      dup2\n      mstore\n      pop\n        /* \"PatientRecords.sol\":627:635  patients */\n      0x00\n        /* \"PatientRecords.sol\":636:639  _id */\n      dup6\n        /* \"PatientRecords.sol\":627:640  patients[_id] */\n      mload(0x40)\n      tag_27\n      swap2\n      swap1\n      tag_23\n      jump\t// in\n    tag_27:\n      swap1\n      dup2\n      mstore\n      0x20\n      add\n      mload(0x40)\n      dup1\n      swap2\n      sub\n      swap1\n      keccak256\n        /* \"PatientRecords.sol\":627:685  patients[_id] = Patient(_id, _name, _diagnosis, timestamp) */\n      0x00\n      dup3\n      add\n      mload\n      dup2\n      0x00\n      add\n      swap1\n      dup2\n      tag_28\n      swap2\n      swap1\n      tag_29\n      jump\t// in\n    tag_28:\n      pop\n      0x20\n      dup3\n      add\n      mload\n      dup2\n      0x01\n      add\n      swap1\n      dup2\n      tag_30\n      swap2\n      swap1\n      tag_29\n      jump\t// in\n    tag_30:\n      pop\n      0x40\n      dup3\n      add\n      mload\n      dup2\n      0x02\n      add\n      swap1\n      dup2\n      tag_31\n      swap2\n      swap1\n      tag_29\n      jump\t// in\n    tag_31:\n      pop\n      0x60\n      dup3\n      add\n      mload\n      dup2\n      0x03\n      add\n      sstore\n      swap1\n      pop\n      pop\n        /* \"PatientRecords.sol\":716:720  true */\n      0x01\n        /* \"PatientRecords.sol\":695:708  patientExists */\n      dup1\n        /* \"PatientRecords.sol\":709:712  _id */\n      dup6\n        /* \"PatientRecords.sol\":695:713  patientExists[_id] */\n      mload(0x40)\n      tag_32\n      swap2\n      swap1\n      tag_23\n      jump\t// in\n    tag_32:\n      swap1\n      dup2\n      mstore\n      0x20\n      add\n      mload(0x40)\n      dup1\n      swap2\n      sub\n      swap1\n      keccak256\n      0x00\n        /* \"PatientRecords.sol\":695:720  patientExists[_id] = true */\n      0x0100\n      exp\n      dup2\n      sload\n      dup2\n      0xff\n      mul\n      not\n      and\n      swap1\n      dup4\n      iszero\n      iszero\n      mul\n      or\n      swap1\n      sstore\n      pop\n        /* \"PatientRecords.sol\":744:772  PatientAdded(_id, timestamp) */\n      0xaaee5e16f938e76ad0568f8a0674f5c0c325d8d5502be320fbeb9e33ff04a0da\n        /* \"PatientRecords.sol\":757:760  _id */\n      dup5\n        /* \"PatientRecords.sol\":762:771  timestamp */\n      dup3\n        /* \"PatientRecords.sol\":744:772  PatientAdded(_id, timestamp) */\n      mload(0x40)\n      tag_33\n      swap3\n      swap2\n      swap1\n      tag_34\n      jump\t// in\n    tag_33:\n      mload(0x40)\n      dup1\n      swap2\n      sub\n      swap1\n      log1\n        /* \"PatientRecords.sol\":499:779  {... */\n      pop\n        /* \"PatientRecords.sol\":376:779  function addPatient(... */\n      pop\n      pop\n      pop\n      jump\t// out\n        /* \"PatientRecords.sol\":1236:1350  function patientDoesExist(string memory _id) public view returns (bool) {... */\n    tag_13:\n        /* \"PatientRecords.sol\":1302:1306  bool */\n      0x00\n        /* \"PatientRecords.sol\":1325:1338  patientExists */\n      0x01\n        /* \"PatientRecords.sol\":1339:1342  _id */\n      dup3\n        /* \"PatientRecords.sol\":1325:1343  patientExists[_id] */\n      mload(0x40)\n      tag_36\n      swap2\n      swap1\n      tag_23\n      jump\t// in\n    tag_36:\n      swap1\n      dup2\n      mstore\n      0x20\n      add\n      mload(0x40)\n      dup1\n      swap2\n      sub\n      swap1\n      keccak256\n      0x00\n      swap1\n      sload\n      swap1\n      0x0100\n      exp\n      swap1\n      div\n      0xff\n      and\n        /* \"PatientRecords.sol\":1318:1343  return patientExists[_id] */\n      swap1\n      pop\n        /* \"PatientRecords.sol\":1236:1350  function patientDoesExist(string memory _id) public view returns (bool) {... */\n      swap2\n      swap1\n      pop\n      jump\t// out\n        /* \"PatientRecords.sol\":789:1226  function getPatient(string memory _id) public view returns (... */\n    tag_18:\n        /* \"PatientRecords.sol\":858:874  string memory id */\n      0x60\n        /* \"PatientRecords.sol\":884:902  string memory name */\n      dup1\n        /* \"PatientRecords.sol\":912:935  string memory diagnosis */\n      0x60\n        /* \"PatientRecords.sol\":945:962  uint256 timestamp */\n      0x00\n        /* \"PatientRecords.sol\":987:1000  patientExists */\n      0x01\n        /* \"PatientRecords.sol\":1001:1004  _id */\n      dup6\n        /* \"PatientRecords.sol\":987:1005  patientExists[_id] */\n      mload(0x40)\n      tag_38\n      swap2\n      swap1\n      tag_23\n      jump\t// in\n    tag_38:\n      swap1\n      dup2\n      mstore\n      0x20\n      add\n      mload(0x40)\n      dup1\n      swap2\n      sub\n      swap1\n      keccak256\n      0x00\n      swap1\n      sload\n      swap1\n      0x0100\n      exp\n      swap1\n      div\n      0xff\n      and\n        /* \"PatientRecords.sol\":979:1032  require(patientExists[_id], \"Patient does not exist\") */\n      tag_39\n      jumpi\n      mload(0x40)\n      0x08c379a000000000000000000000000000000000000000000000000000000000\n      dup2\n      mstore\n      0x04\n      add\n      tag_40\n      swap1\n      tag_41\n      jump\t// in\n    tag_40:\n      mload(0x40)\n      dup1\n      swap2\n      sub\n      swap1\n      revert\n    tag_39:\n        /* \"PatientRecords.sol\":1042:1064  Patient memory patient */\n      0x00\n        /* \"PatientRecords.sol\":1067:1075  patients */\n      0x00\n        /* \"PatientRecords.sol\":1076:1079  _id */\n      dup7\n        /* \"PatientRecords.sol\":1067:1080  patients[_id] */\n      mload(0x40)\n      tag_42\n      swap2\n      swap1\n      tag_23\n      jump\t// in\n    tag_42:\n      swap1\n      dup2\n      mstore\n      0x20\n      add\n      mload(0x40)\n      dup1\n      swap2\n      sub\n      swap1\n      keccak256\n        /* \"PatientRecords.sol\":1042:1080  Patient memory patient = patients[_id] */\n      mload(0x40)\n      dup1\n      0x80\n      add\n      0x40\n      mstore\n      swap1\n      dup2\n      0x00\n      dup3\n      add\n      dup1\n      sload\n      tag_43\n      swap1\n      tag_44\n      jump\t// in\n    tag_43:\n      dup1\n      0x1f\n      add\n      0x20\n      dup1\n      swap2\n      div\n      mul\n      0x20\n      add\n      mload(0x40)\n      swap1\n      dup2\n      add\n      0x40\n      mstore\n      dup1\n      swap3\n      swap2\n      swap1\n      dup2\n      dup2\n      mstore\n      0x20\n      add\n      dup3\n      dup1\n      sload\n      tag_45\n      swap1\n      tag_44\n      jump\t// in\n    tag_45:\n      dup1\n      iszero\n      tag_46\n      jumpi\n      dup1\n      0x1f\n      lt\n      tag_47\n      jumpi\n      0x0100\n      dup1\n      dup4\n      sload\n      div\n      mul\n      dup4\n      mstore\n      swap2\n      0x20\n      add\n      swap2\n      jump(tag_46)\n    tag_47:\n      dup3\n      add\n      swap2\n      swap1\n      0x00\n      mstore\n      keccak256(0x00, 0x20)\n      swap1\n    tag_48:\n      dup2\n      sload\n      dup2\n      mstore\n      swap1\n      0x01\n      add\n      swap1\n      0x20\n      add\n      dup1\n      dup4\n      gt\n      tag_48\n      jumpi\n      dup3\n      swap1\n      sub\n      0x1f\n      and\n      dup3\n      add\n      swap2\n    tag_46:\n      pop\n      pop\n      pop\n      pop\n      pop\n      dup2\n      mstore\n      0x20\n      add\n      0x01\n      dup3\n      add\n      dup1\n      sload\n      tag_49\n      swap1\n      tag_44\n      jump\t// in\n    tag_49:\n      dup1\n      0x1f\n      add\n      0x20\n      dup1\n      swap2\n      div\n      mul\n      0x20\n      add\n      mload(0x40)\n      swap1\n      dup2\n      add\n      0x40\n      mstore\n      dup1\n      swap3\n      swap2\n      swap1\n      dup2\n      dup2\n      mstore\n      0x20\n      add\n      dup3\n      dup1\n      sload\n      tag_50\n      swap1\n      tag_44\n      jump\t// in\n    tag_50:\n      dup1\n      iszero\n      tag_51\n      jumpi\n      dup1\n      0x1f\n      lt\n      tag_52\n      jumpi\n      0x0100\n      dup1\n      dup4\n      sload\n      div\n      mul\n      dup4\n      mstore\n      swap2\n      0x20\n      add\n      swap2\n      jump(tag_51)\n    tag_52:\n      dup3\n      add\n      swap2\n      swap1\n      0x00\n      mstore\n      keccak256(0x00, 0x20)\n      swap1\n    tag_53:\n      dup2\n      sload\n      dup2\n      mstore\n      swap1\n      0x01\n      add\n      swap1\n      0x20\n      add\n      dup1\n      dup4\n      gt\n      tag_53\n      jumpi\n      dup3\n      swap1\n      sub\n      0x1f\n      and\n      dup3\n      add\n      swap2\n    tag_51:\n      pop\n      pop\n      pop\n      pop\n      pop\n      dup2\n      mstore\n      0x20\n      add\n      0x02\n      dup3\n      add\n      dup1\n      sload\n      tag_54\n      swap1\n      tag_44\n      jump\t// in\n    tag_54:\n      dup1\n      0x1f\n      add\n      0x20\n      dup1\n      swap2\n      div\n      mul\n      0x20\n      add\n      mload(0x40)\n      swap1\n      dup2\n      add\n      0x40\n      mstore\n      dup1\n      swap3\n      swap2\n      swap1\n      dup2\n      dup2\n      mstore\n      0x20\n      add\n      dup3\n      dup1\n      sload\n      tag_55\n      swap1\n      tag_44\n      jump\t// in\n    tag_55:\n      dup1\n      iszero\n      tag_56\n      jumpi\n      dup1\n      0x1f\n      lt\n      tag_57\n      jumpi\n      0x0100\n      dup1\n      dup4\n      sload\n      div\n      mul\n      dup4\n      mstore\n      swap2\n      0x20\n      add\n      swap2\n      jump(tag_56)\n    tag_57:\n      dup3\n      add\n      swap2\n      swap1\n      0x00\n      mstore\n      keccak256(0x00, 0x20)\n      swap1\n    tag_58:\n      dup2\n      sload\n      dup2\n      mstore\n      swap1\n      0x01\n      add\n      swap1\n      0x20\n      add\n      dup1\n      dup4\n      gt\n      tag_58\n      jumpi\n      dup3\n      swap1\n      sub\n      0x1f\n      and\n      dup3\n      add\n      swap2\n    tag_56:\n      pop\n      pop\n      pop\n      pop\n      pop\n      dup2\n      mstore\n      0x20\n      add\n      0x03\n      dup3\n      add\n      sload\n      dup2\n      mstore\n      pop\n      pop\n      swap1\n      pop\n        /* \"PatientRecords.sol\":1111:1118  patient */\n      dup1\n        /* \"PatientRecords.sol\":1111:1121  patient.id */\n      0x00\n      add\n      mload\n        /* \"PatientRecords.sol\":1135:1142  patient */\n      dup2\n        /* \"PatientRecords.sol\":1135:1147  patient.name */\n      0x20\n      add\n      mload\n        /* \"PatientRecords.sol\":1161:1168  patient */\n      dup3\n        /* \"PatientRecords.sol\":1161:1178  patient.diagnosis */\n      0x40\n      add\n      mload\n        /* \"PatientRecords.sol\":1192:1199  patient */\n      dup4\n        /* \"PatientRecords.sol\":1192:1209  patient.timestamp */\n      0x60\n      add\n      mload\n        /* \"PatientRecords.sol\":1090:1219  return (... */\n      swap5\n      pop\n      swap5\n      pop\n      swap5\n      pop\n      swap5\n      pop\n      pop\n        /* \"PatientRecords.sol\":789:1226  function getPatient(string memory _id) public view returns (... */\n      swap2\n      swap4\n      pop\n      swap2\n      swap4\n      jump\t// out\n        /* \"#utility.yul\":7:82   */\n    tag_59:\n        /* \"#utility.yul\":40:46   */\n      0x00\n        /* \"#utility.yul\":73:75   */\n      0x40\n        /* \"#utility.yul\":67:76   */\n      mload\n        /* \"#utility.yul\":57:76   */\n      swap1\n      pop\n        /* \"#utility.yul\":7:82   */\n      swap1\n      jump\t// out\n        /* \"#utility.yul\":88:205   */\n    tag_60:\n        /* \"#utility.yul\":197:198   */\n      0x00\n        /* \"#utility.yul\":194:195   */\n      0x00\n        /* \"#utility.yul\":187:199   */\n      revert\n        /* \"#utility.yul\":211:328   */\n    tag_61:\n        /* \"#utility.yul\":320:321   */\n      0x00\n        /* \"#utility.yul\":317:318   */\n      0x00\n        /* \"#utility.yul\":310:322   */\n      revert\n        /* \"#utility.yul\":334:451   */\n    tag_62:\n        /* \"#utility.yul\":443:444   */\n      0x00\n        /* \"#utility.yul\":440:441   */\n      0x00\n        /* \"#utility.yul\":433:445   */\n      revert\n        /* \"#utility.yul\":457:574   */\n    tag_63:\n        /* \"#utility.yul\":566:567   */\n      0x00\n        /* \"#utility.yul\":563:564   */\n      0x00\n        /* \"#utility.yul\":556:568   */\n      revert\n        /* \"#utility.yul\":580:682   */\n    tag_64:\n        /* \"#utility.yul\":621:627   */\n      0x00\n        /* \"#utility.yul\":672:674   */\n      0x1f\n        /* \"#utility.yul\":668:675   */\n      not\n        /* \"#utility.yul\":663:665   */\n      0x1f\n        /* \"#utility.yul\":656:661   */\n      dup4\n        /* \"#utility.yul\":652:666   */\n      add\n        /* \"#utility.yul\":648:676   */\n      and\n        /* \"#utility.yul\":638:676   */\n      swap1\n      pop\n        /* \"#utility.yul\":580:682   */\n      swap2\n      swap1\n      pop\n      jump\t// out\n        /* \"#utility.yul\":688:868   */\n    tag_65:\n        /* \"#utility.yul\":736:813   */\n      0x4e487b7100000000000000000000000000000000000000000000000000000000\n        /* \"#utility.yul\":733:734   */\n      0x00\n        /* \"#utility.yul\":726:814   */\n      mstore\n        /* \"#utility.yul\":833:837   */\n      0x41\n        /* \"#utility.yul\":830:831   */\n      0x04\n        /* \"#utility.yul\":823:838   */\n      mstore\n        /* \"#utility.yul\":857:861   */\n      0x24\n        /* \"#utility.yul\":854:855   */\n      0x00\n        /* \"#utility.yul\":847:862   */\n      revert\n        /* \"#utility.yul\":874:1155   */\n    tag_66:\n        /* \"#utility.yul\":957:984   */\n      tag_111\n        /* \"#utility.yul\":979:983   */\n      dup3\n        /* \"#utility.yul\":957:984   */\n      tag_64\n      jump\t// in\n    tag_111:\n        /* \"#utility.yul\":949:955   */\n      dup2\n        /* \"#utility.yul\":945:985   */\n      add\n        /* \"#utility.yul\":1087:1093   */\n      dup2\n        /* \"#utility.yul\":1075:1085   */\n      dup2\n        /* \"#utility.yul\":1072:1094   */\n      lt\n        /* \"#utility.yul\":1051:1069   */\n      0xffffffffffffffff\n        /* \"#utility.yul\":1039:1049   */\n      dup3\n        /* \"#utility.yul\":1036:1070   */\n      gt\n        /* \"#utility.yul\":1033:1095   */\n      or\n        /* \"#utility.yul\":1030:1118   */\n      iszero\n      tag_112\n      jumpi\n        /* \"#utility.yul\":1098:1116   */\n      tag_113\n      tag_65\n      jump\t// in\n    tag_113:\n        /* \"#utility.yul\":1030:1118   */\n    tag_112:\n        /* \"#utility.yul\":1138:1148   */\n      dup1\n        /* \"#utility.yul\":1134:1136   */\n      0x40\n        /* \"#utility.yul\":1127:1149   */\n      mstore\n        /* \"#utility.yul\":917:1155   */\n      pop\n        /* \"#utility.yul\":874:1155   */\n      pop\n      pop\n      jump\t// out\n        /* \"#utility.yul\":1161:1290   */\n    tag_67:\n        /* \"#utility.yul\":1195:1201   */\n      0x00\n        /* \"#utility.yul\":1222:1242   */\n      tag_115\n      tag_59\n      jump\t// in\n    tag_115:\n        /* \"#utility.yul\":1212:1242   */\n      swap1\n      pop\n        /* \"#utility.yul\":1251:1284   */\n      tag_116\n        /* \"#utility.yul\":1279:1283   */\n      dup3\n        /* \"#utility.yul\":1271:1277   */\n      dup3\n        /* \"#utility.yul\":1251:1284   */\n      tag_66\n      jump\t// in\n    tag_116:\n        /* \"#utility.yul\":1161:1290   */\n      swap2\n      swap1\n      pop\n      jump\t// out\n        /* \"#utility.yul\":1296:1604   */\n    tag_68:\n        /* \"#utility.yul\":1358:1362   */\n      0x00\n        /* \"#utility.yul\":1448:1466   */\n      0xffffffffffffffff\n        /* \"#utility.yul\":1440:1446   */\n      dup3\n        /* \"#utility.yul\":1437:1467   */\n      gt\n        /* \"#utility.yul\":1434:1490   */\n      iszero\n      tag_118\n      jumpi\n        /* \"#utility.yul\":1470:1488   */\n      tag_119\n      tag_65\n      jump\t// in\n    tag_119:\n        /* \"#utility.yul\":1434:1490   */\n    tag_118:\n        /* \"#utility.yul\":1508:1537   */\n      tag_120\n        /* \"#utility.yul\":1530:1536   */\n      dup3\n        /* \"#utility.yul\":1508:1537   */\n      tag_64\n      jump\t// in\n    tag_120:\n        /* \"#utility.yul\":1500:1537   */\n      swap1\n      pop\n        /* \"#utility.yul\":1592:1596   */\n      0x20\n        /* \"#utility.yul\":1586:1590   */\n      dup2\n        /* \"#utility.yul\":1582:1597   */\n      add\n        /* \"#utility.yul\":1574:1597   */\n      swap1\n      pop\n        /* \"#utility.yul\":1296:1604   */\n      swap2\n      swap1\n      pop\n      jump\t// out\n        /* \"#utility.yul\":1610:1758   */\n    tag_69:\n        /* \"#utility.yul\":1708:1714   */\n      dup3\n        /* \"#utility.yul\":1703:1706   */\n      dup2\n        /* \"#utility.yul\":1698:1701   */\n      dup4\n        /* \"#utility.yul\":1685:1715   */\n      calldatacopy\n        /* \"#utility.yul\":1749:1750   */\n      0x00\n        /* \"#utility.yul\":1740:1746   */\n      dup4\n        /* \"#utility.yul\":1735:1738   */\n      dup4\n        /* \"#utility.yul\":1731:1747   */\n      add\n        /* \"#utility.yul\":1724:1751   */\n      mstore\n        /* \"#utility.yul\":1610:1758   */\n      pop\n      pop\n      pop\n      jump\t// out\n        /* \"#utility.yul\":1764:2189   */\n    tag_70:\n        /* \"#utility.yul\":1842:1847   */\n      0x00\n        /* \"#utility.yul\":1867:1933   */\n      tag_123\n        /* \"#utility.yul\":1883:1932   */\n      tag_124\n        /* \"#utility.yul\":1925:1931   */\n      dup5\n        /* \"#utility.yul\":1883:1932   */\n      tag_68\n      jump\t// in\n    tag_124:\n        /* \"#utility.yul\":1867:1933   */\n      tag_67\n      jump\t// in\n    tag_123:\n        /* \"#utility.yul\":1858:1933   */\n      swap1\n      pop\n        /* \"#utility.yul\":1956:1962   */\n      dup3\n        /* \"#utility.yul\":1949:1954   */\n      dup2\n        /* \"#utility.yul\":1942:1963   */\n      mstore\n        /* \"#utility.yul\":1994:1998   */\n      0x20\n        /* \"#utility.yul\":1987:1992   */\n      dup2\n        /* \"#utility.yul\":1983:1999   */\n      add\n        /* \"#utility.yul\":2032:2035   */\n      dup5\n        /* \"#utility.yul\":2023:2029   */\n      dup5\n        /* \"#utility.yul\":2018:2021   */\n      dup5\n        /* \"#utility.yul\":2014:2030   */\n      add\n        /* \"#utility.yul\":2011:2036   */\n      gt\n        /* \"#utility.yul\":2008:2120   */\n      iszero\n      tag_125\n      jumpi\n        /* \"#utility.yul\":2039:2118   */\n      tag_126\n      tag_63\n      jump\t// in\n    tag_126:\n        /* \"#utility.yul\":2008:2120   */\n    tag_125:\n        /* \"#utility.yul\":2129:2183   */\n      tag_127\n        /* \"#utility.yul\":2176:2182   */\n      dup5\n        /* \"#utility.yul\":2171:2174   */\n      dup3\n        /* \"#utility.yul\":2166:2169   */\n      dup6\n        /* \"#utility.yul\":2129:2183   */\n      tag_69\n      jump\t// in\n    tag_127:\n        /* \"#utility.yul\":1848:2189   */\n      pop\n        /* \"#utility.yul\":1764:2189   */\n      swap4\n      swap3\n      pop\n      pop\n      pop\n      jump\t// out\n        /* \"#utility.yul\":2209:2549   */\n    tag_71:\n        /* \"#utility.yul\":2265:2270   */\n      0x00\n        /* \"#utility.yul\":2314:2317   */\n      dup3\n        /* \"#utility.yul\":2307:2311   */\n      0x1f\n        /* \"#utility.yul\":2299:2305   */\n      dup4\n        /* \"#utility.yul\":2295:2312   */\n      add\n        /* \"#utility.yul\":2291:2318   */\n      slt\n        /* \"#utility.yul\":2281:2403   */\n      tag_129\n      jumpi\n        /* \"#utility.yul\":2322:2401   */\n      tag_130\n      tag_62\n      jump\t// in\n    tag_130:\n        /* \"#utility.yul\":2281:2403   */\n    tag_129:\n        /* \"#utility.yul\":2439:2445   */\n      dup2\n        /* \"#utility.yul\":2426:2446   */\n      calldataload\n        /* \"#utility.yul\":2464:2543   */\n      tag_131\n        /* \"#utility.yul\":2539:2542   */\n      dup5\n        /* \"#utility.yul\":2531:2537   */\n      dup3\n        /* \"#utility.yul\":2524:2528   */\n      0x20\n        /* \"#utility.yul\":2516:2522   */\n      dup7\n        /* \"#utility.yul\":2512:2529   */\n      add\n        /* \"#utility.yul\":2464:2543   */\n      tag_70\n      jump\t// in\n    tag_131:\n        /* \"#utility.yul\":2455:2543   */\n      swap2\n      pop\n        /* \"#utility.yul\":2271:2549   */\n      pop\n        /* \"#utility.yul\":2209:2549   */\n      swap3\n      swap2\n      pop\n      pop\n      jump\t// out\n        /* \"#utility.yul\":2555:3714   */\n    tag_8:\n        /* \"#utility.yul\":2662:2668   */\n      0x00\n        /* \"#utility.yul\":2670:2676   */\n      0x00\n        /* \"#utility.yul\":2678:2684   */\n      0x00\n        /* \"#utility.yul\":2727:2729   */\n      0x60\n        /* \"#utility.yul\":2715:2724   */\n      dup5\n        /* \"#utility.yul\":2706:2713   */\n      dup7\n        /* \"#utility.yul\":2702:2725   */\n      sub\n        /* \"#utility.yul\":2698:2730   */\n      slt\n        /* \"#utility.yul\":2695:2814   */\n      iszero\n      tag_133\n      jumpi\n        /* \"#utility.yul\":2733:2812   */\n      tag_134\n      tag_60\n      jump\t// in\n    tag_134:\n        /* \"#utility.yul\":2695:2814   */\n    tag_133:\n        /* \"#utility.yul\":2881:2882   */\n      0x00\n        /* \"#utility.yul\":2870:2879   */\n      dup5\n        /* \"#utility.yul\":2866:2883   */\n      add\n        /* \"#utility.yul\":2853:2884   */\n      calldataload\n        /* \"#utility.yul\":2911:2929   */\n      0xffffffffffffffff\n        /* \"#utility.yul\":2903:2909   */\n      dup2\n        /* \"#utility.yul\":2900:2930   */\n      gt\n        /* \"#utility.yul\":2897:3014   */\n      iszero\n      tag_135\n      jumpi\n        /* \"#utility.yul\":2933:3012   */\n      tag_136\n      tag_61\n      jump\t// in\n    tag_136:\n        /* \"#utility.yul\":2897:3014   */\n    tag_135:\n        /* \"#utility.yul\":3038:3101   */\n      tag_137\n        /* \"#utility.yul\":3093:3100   */\n      dup7\n        /* \"#utility.yul\":3084:3090   */\n      dup3\n        /* \"#utility.yul\":3073:3082   */\n      dup8\n        /* \"#utility.yul\":3069:3091   */\n      add\n        /* \"#utility.yul\":3038:3101   */\n      tag_71\n      jump\t// in\n    tag_137:\n        /* \"#utility.yul\":3028:3101   */\n      swap4\n      pop\n        /* \"#utility.yul\":2824:3111   */\n      pop\n        /* \"#utility.yul\":3178:3180   */\n      0x20\n        /* \"#utility.yul\":3167:3176   */\n      dup5\n        /* \"#utility.yul\":3163:3181   */\n      add\n        /* \"#utility.yul\":3150:3182   */\n      calldataload\n        /* \"#utility.yul\":3209:3227   */\n      0xffffffffffffffff\n        /* \"#utility.yul\":3201:3207   */\n      dup2\n        /* \"#utility.yul\":3198:3228   */\n      gt\n        /* \"#utility.yul\":3195:3312   */\n      iszero\n      tag_138\n      jumpi\n        /* \"#utility.yul\":3231:3310   */\n      tag_139\n      tag_61\n      jump\t// in\n    tag_139:\n        /* \"#utility.yul\":3195:3312   */\n    tag_138:\n        /* \"#utility.yul\":3336:3399   */\n      tag_140\n        /* \"#utility.yul\":3391:3398   */\n      dup7\n        /* \"#utility.yul\":3382:3388   */\n      dup3\n        /* \"#utility.yul\":3371:3380   */\n      dup8\n        /* \"#utility.yul\":3367:3389   */\n      add\n        /* \"#utility.yul\":3336:3399   */\n      tag_71\n      jump\t// in\n    tag_140:\n        /* \"#utility.yul\":3326:3399   */\n      swap3\n      pop\n        /* \"#utility.yul\":3121:3409   */\n      pop\n        /* \"#utility.yul\":3476:3478   */\n      0x40\n        /* \"#utility.yul\":3465:3474   */\n      dup5\n        /* \"#utility.yul\":3461:3479   */\n      add\n        /* \"#utility.yul\":3448:3480   */\n      calldataload\n        /* \"#utility.yul\":3507:3525   */\n      0xffffffffffffffff\n        /* \"#utility.yul\":3499:3505   */\n      dup2\n        /* \"#utility.yul\":3496:3526   */\n      gt\n        /* \"#utility.yul\":3493:3610   */\n      iszero\n      tag_141\n      jumpi\n        /* \"#utility.yul\":3529:3608   */\n      tag_142\n      tag_61\n      jump\t// in\n    tag_142:\n        /* \"#utility.yul\":3493:3610   */\n    tag_141:\n        /* \"#utility.yul\":3634:3697   */\n      tag_143\n        /* \"#utility.yul\":3689:3696   */\n      dup7\n        /* \"#utility.yul\":3680:3686   */\n      dup3\n        /* \"#utility.yul\":3669:3678   */\n      dup8\n        /* \"#utility.yul\":3665:3687   */\n      add\n        /* \"#utility.yul\":3634:3697   */\n      tag_71\n      jump\t// in\n    tag_143:\n        /* \"#utility.yul\":3624:3697   */\n      swap2\n      pop\n        /* \"#utility.yul\":3419:3707   */\n      pop\n        /* \"#utility.yul\":2555:3714   */\n      swap3\n      pop\n      swap3\n      pop\n      swap3\n      jump\t// out\n        /* \"#utility.yul\":3720:4229   */\n    tag_12:\n        /* \"#utility.yul\":3789:3795   */\n      0x00\n        /* \"#utility.yul\":3838:3840   */\n      0x20\n        /* \"#utility.yul\":3826:3835   */\n      dup3\n        /* \"#utility.yul\":3817:3824   */\n      dup5\n        /* \"#utility.yul\":3813:3836   */\n      sub\n        /* \"#utility.yul\":3809:3841   */\n      slt\n        /* \"#utility.yul\":3806:3925   */\n      iszero\n      tag_145\n      jumpi\n        /* \"#utility.yul\":3844:3923   */\n      tag_146\n      tag_60\n      jump\t// in\n    tag_146:\n        /* \"#utility.yul\":3806:3925   */\n    tag_145:\n        /* \"#utility.yul\":3992:3993   */\n      0x00\n        /* \"#utility.yul\":3981:3990   */\n      dup3\n        /* \"#utility.yul\":3977:3994   */\n      add\n        /* \"#utility.yul\":3964:3995   */\n      calldataload\n        /* \"#utility.yul\":4022:4040   */\n      0xffffffffffffffff\n        /* \"#utility.yul\":4014:4020   */\n      dup2\n        /* \"#utility.yul\":4011:4041   */\n      gt\n        /* \"#utility.yul\":4008:4125   */\n      iszero\n      tag_147\n      jumpi\n        /* \"#utility.yul\":4044:4123   */\n      tag_148\n      tag_61\n      jump\t// in\n    tag_148:\n        /* \"#utility.yul\":4008:4125   */\n    tag_147:\n        /* \"#utility.yul\":4149:4212   */\n      tag_149\n        /* \"#utility.yul\":4204:4211   */\n      dup5\n        /* \"#utility.yul\":4195:4201   */\n      dup3\n        /* \"#utility.yul\":4184:4193   */\n      dup6\n        /* \"#utility.yul\":4180:4202   */\n      add\n        /* \"#utility.yul\":4149:4212   */\n      tag_71\n      jump\t// in\n    tag_149:\n        /* \"#utility.yul\":4139:4212   */\n      swap2\n      pop\n        /* \"#utility.yul\":3935:4222   */\n      pop\n        /* \"#utility.yul\":3720:4229   */\n      swap3\n      swap2\n      pop\n      pop\n      jump\t// out\n        /* \"#utility.yul\":4235:4325   */\n    tag_72:\n        /* \"#utility.yul\":4269:4276   */\n      0x00\n        /* \"#utility.yul\":4312:4317   */\n      dup2\n        /* \"#utility.yul\":4305:4318   */\n      iszero\n        /* \"#utility.yul\":4298:4319   */\n      iszero\n        /* \"#utility.yul\":4287:4319   */\n      swap1\n      pop\n        /* \"#utility.yul\":4235:4325   */\n      swap2\n      swap1\n      pop\n      jump\t// out\n        /* \"#utility.yul\":4331:4440   */\n    tag_73:\n        /* \"#utility.yul\":4412:4433   */\n      tag_152\n        /* \"#utility.yul\":4427:4432   */\n      dup2\n        /* \"#utility.yul\":4412:4433   */\n      tag_72\n      jump\t// in\n    tag_152:\n        /* \"#utility.yul\":4407:4410   */\n      dup3\n        /* \"#utility.yul\":4400:4434   */\n      mstore\n        /* \"#utility.yul\":4331:4440   */\n      pop\n      pop\n      jump\t// out\n        /* \"#utility.yul\":4446:4656   */\n    tag_15:\n        /* \"#utility.yul\":4533:4537   */\n      0x00\n        /* \"#utility.yul\":4571:4573   */\n      0x20\n        /* \"#utility.yul\":4560:4569   */\n      dup3\n        /* \"#utility.yul\":4556:4574   */\n      add\n        /* \"#utility.yul\":4548:4574   */\n      swap1\n      pop\n        /* \"#utility.yul\":4584:4649   */\n      tag_154\n        /* \"#utility.yul\":4646:4647   */\n      0x00\n        /* \"#utility.yul\":4635:4644   */\n      dup4\n        /* \"#utility.yul\":4631:4648   */\n      add\n        /* \"#utility.yul\":4622:4628   */\n      dup5\n        /* \"#utility.yul\":4584:4649   */\n      tag_73\n      jump\t// in\n    tag_154:\n        /* \"#utility.yul\":4446:4656   */\n      swap3\n      swap2\n      pop\n      pop\n      jump\t// out\n        /* \"#utility.yul\":4662:4761   */\n    tag_74:\n        /* \"#utility.yul\":4714:4720   */\n      0x00\n        /* \"#utility.yul\":4748:4753   */\n      dup2\n        /* \"#utility.yul\":4742:4754   */\n      mload\n        /* \"#utility.yul\":4732:4754   */\n      swap1\n      pop\n        /* \"#utility.yul\":4662:4761   */\n      swap2\n      swap1\n      pop\n      jump\t// out\n        /* \"#utility.yul\":4767:4936   */\n    tag_75:\n        /* \"#utility.yul\":4851:4862   */\n      0x00\n        /* \"#utility.yul\":4885:4891   */\n      dup3\n        /* \"#utility.yul\":4880:4883   */\n      dup3\n        /* \"#utility.yul\":4873:4892   */\n      mstore\n        /* \"#utility.yul\":4925:4929   */\n      0x20\n        /* \"#utility.yul\":4920:4923   */\n      dup3\n        /* \"#utility.yul\":4916:4930   */\n      add\n        /* \"#utility.yul\":4901:4930   */\n      swap1\n      pop\n        /* \"#utility.yul\":4767:4936   */\n      swap3\n      swap2\n      pop\n      pop\n      jump\t// out\n        /* \"#utility.yul\":4942:5081   */\n    tag_76:\n        /* \"#utility.yul\":5031:5037   */\n      dup3\n        /* \"#utility.yul\":5026:5029   */\n      dup2\n        /* \"#utility.yul\":5021:5024   */\n      dup4\n        /* \"#utility.yul\":5015:5038   */\n      mcopy\n        /* \"#utility.yul\":5072:5073   */\n      0x00\n        /* \"#utility.yul\":5063:5069   */\n      dup4\n        /* \"#utility.yul\":5058:5061   */\n      dup4\n        /* \"#utility.yul\":5054:5070   */\n      add\n        /* \"#utility.yul\":5047:5074   */\n      mstore\n        /* \"#utility.yul\":4942:5081   */\n      pop\n      pop\n      pop\n      jump\t// out\n        /* \"#utility.yul\":5087:5464   */\n    tag_77:\n        /* \"#utility.yul\":5175:5178   */\n      0x00\n        /* \"#utility.yul\":5203:5242   */\n      tag_159\n        /* \"#utility.yul\":5236:5241   */\n      dup3\n        /* \"#utility.yul\":5203:5242   */\n      tag_74\n      jump\t// in\n    tag_159:\n        /* \"#utility.yul\":5258:5329   */\n      tag_160\n        /* \"#utility.yul\":5322:5328   */\n      dup2\n        /* \"#utility.yul\":5317:5320   */\n      dup6\n        /* \"#utility.yul\":5258:5329   */\n      tag_75\n      jump\t// in\n    tag_160:\n        /* \"#utility.yul\":5251:5329   */\n      swap4\n      pop\n        /* \"#utility.yul\":5338:5403   */\n      tag_161\n        /* \"#utility.yul\":5396:5402   */\n      dup2\n        /* \"#utility.yul\":5391:5394   */\n      dup6\n        /* \"#utility.yul\":5384:5388   */\n      0x20\n        /* \"#utility.yul\":5377:5382   */\n      dup7\n        /* \"#utility.yul\":5373:5389   */\n      add\n        /* \"#utility.yul\":5338:5403   */\n      tag_76\n      jump\t// in\n    tag_161:\n        /* \"#utility.yul\":5428:5457   */\n      tag_162\n        /* \"#utility.yul\":5450:5456   */\n      dup2\n        /* \"#utility.yul\":5428:5457   */\n      tag_64\n      jump\t// in\n    tag_162:\n        /* \"#utility.yul\":5423:5426   */\n      dup5\n        /* \"#utility.yul\":5419:5458   */\n      add\n        /* \"#utility.yul\":5412:5458   */\n      swap2\n      pop\n        /* \"#utility.yul\":5179:5464   */\n      pop\n        /* \"#utility.yul\":5087:5464   */\n      swap3\n      swap2\n      pop\n      pop\n      jump\t// out\n        /* \"#utility.yul\":5470:5547   */\n    tag_78:\n        /* \"#utility.yul\":5507:5514   */\n      0x00\n        /* \"#utility.yul\":5536:5541   */\n      dup2\n        /* \"#utility.yul\":5525:5541   */\n      swap1\n      pop\n        /* \"#utility.yul\":5470:5547   */\n      swap2\n      swap1\n      pop\n      jump\t// out\n        /* \"#utility.yul\":5553:5671   */\n    tag_79:\n        /* \"#utility.yul\":5640:5664   */\n      tag_165\n        /* \"#utility.yul\":5658:5663   */\n      dup2\n        /* \"#utility.yul\":5640:5664   */\n      tag_78\n      jump\t// in\n    tag_165:\n        /* \"#utility.yul\":5635:5638   */\n      dup3\n        /* \"#utility.yul\":5628:5665   */\n      mstore\n        /* \"#utility.yul\":5553:5671   */\n      pop\n      pop\n      jump\t// out\n        /* \"#utility.yul\":5677:6503   */\n    tag_20:\n        /* \"#utility.yul\":5914:5918   */\n      0x00\n        /* \"#utility.yul\":5952:5955   */\n      0x80\n        /* \"#utility.yul\":5941:5950   */\n      dup3\n        /* \"#utility.yul\":5937:5956   */\n      add\n        /* \"#utility.yul\":5929:5956   */\n      swap1\n      pop\n        /* \"#utility.yul\":6002:6011   */\n      dup2\n        /* \"#utility.yul\":5996:6000   */\n      dup2\n        /* \"#utility.yul\":5992:6012   */\n      sub\n        /* \"#utility.yul\":5988:5989   */\n      0x00\n        /* \"#utility.yul\":5977:5986   */\n      dup4\n        /* \"#utility.yul\":5973:5990   */\n      add\n        /* \"#utility.yul\":5966:6013   */\n      mstore\n        /* \"#utility.yul\":6030:6108   */\n      tag_167\n        /* \"#utility.yul\":6103:6107   */\n      dup2\n        /* \"#utility.yul\":6094:6100   */\n      dup8\n        /* \"#utility.yul\":6030:6108   */\n      tag_77\n      jump\t// in\n    tag_167:\n        /* \"#utility.yul\":6022:6108   */\n      swap1\n      pop\n        /* \"#utility.yul\":6155:6164   */\n      dup2\n        /* \"#utility.yul\":6149:6153   */\n      dup2\n        /* \"#utility.yul\":6145:6165   */\n      sub\n        /* \"#utility.yul\":6140:6142   */\n      0x20\n        /* \"#utility.yul\":6129:6138   */\n      dup4\n        /* \"#utility.yul\":6125:6143   */\n      add\n        /* \"#utility.yul\":6118:6166   */\n      mstore\n        /* \"#utility.yul\":6183:6261   */\n      tag_168\n        /* \"#utility.yul\":6256:6260   */\n      dup2\n        /* \"#utility.yul\":6247:6253   */\n      dup7\n        /* \"#utility.yul\":6183:6261   */\n      tag_77\n      jump\t// in\n    tag_168:\n        /* \"#utility.yul\":6175:6261   */\n      swap1\n      pop\n        /* \"#utility.yul\":6308:6317   */\n      dup2\n        /* \"#utility.yul\":6302:6306   */\n      dup2\n        /* \"#utility.yul\":6298:6318   */\n      sub\n        /* \"#utility.yul\":6293:6295   */\n      0x40\n        /* \"#utility.yul\":6282:6291   */\n      dup4\n        /* \"#utility.yul\":6278:6296   */\n      add\n        /* \"#utility.yul\":6271:6319   */\n      mstore\n        /* \"#utility.yul\":6336:6414   */\n      tag_169\n        /* \"#utility.yul\":6409:6413   */\n      dup2\n        /* \"#utility.yul\":6400:6406   */\n      dup6\n        /* \"#utility.yul\":6336:6414   */\n      tag_77\n      jump\t// in\n    tag_169:\n        /* \"#utility.yul\":6328:6414   */\n      swap1\n      pop\n        /* \"#utility.yul\":6424:6496   */\n      tag_170\n        /* \"#utility.yul\":6492:6494   */\n      0x60\n        /* \"#utility.yul\":6481:6490   */\n      dup4\n        /* \"#utility.yul\":6477:6495   */\n      add\n        /* \"#utility.yul\":6468:6474   */\n      dup5\n        /* \"#utility.yul\":6424:6496   */\n      tag_79\n      jump\t// in\n    tag_170:\n        /* \"#utility.yul\":5677:6503   */\n      swap6\n      swap5\n      pop\n      pop\n      pop\n      pop\n      pop\n      jump\t// out\n        /* \"#utility.yul\":6509:6657   */\n    tag_80:\n        /* \"#utility.yul\":6611:6622   */\n      0x00\n        /* \"#utility.yul\":6648:6651   */\n      dup2\n        /* \"#utility.yul\":6633:6651   */\n      swap1\n      pop\n        /* \"#utility.yul\":6509:6657   */\n      swap3\n      swap2\n      pop\n      pop\n      jump\t// out\n        /* \"#utility.yul\":6663:7053   */\n    tag_81:\n        /* \"#utility.yul\":6769:6772   */\n      0x00\n        /* \"#utility.yul\":6797:6836   */\n      tag_173\n        /* \"#utility.yul\":6830:6835   */\n      dup3\n        /* \"#utility.yul\":6797:6836   */\n      tag_74\n      jump\t// in\n    tag_173:\n        /* \"#utility.yul\":6852:6941   */\n      tag_174\n        /* \"#utility.yul\":6934:6940   */\n      dup2\n        /* \"#utility.yul\":6929:6932   */\n      dup6\n        /* \"#utility.yul\":6852:6941   */\n      tag_80\n      jump\t// in\n    tag_174:\n        /* \"#utility.yul\":6845:6941   */\n      swap4\n      pop\n        /* \"#utility.yul\":6950:7015   */\n      tag_175\n        /* \"#utility.yul\":7008:7014   */\n      dup2\n        /* \"#utility.yul\":7003:7006   */\n      dup6\n        /* \"#utility.yul\":6996:7000   */\n      0x20\n        /* \"#utility.yul\":6989:6994   */\n      dup7\n        /* \"#utility.yul\":6985:7001   */\n      add\n        /* \"#utility.yul\":6950:7015   */\n      tag_76\n      jump\t// in\n    tag_175:\n        /* \"#utility.yul\":7040:7046   */\n      dup1\n        /* \"#utility.yul\":7035:7038   */\n      dup5\n        /* \"#utility.yul\":7031:7047   */\n      add\n        /* \"#utility.yul\":7024:7047   */\n      swap2\n      pop\n        /* \"#utility.yul\":6773:7053   */\n      pop\n        /* \"#utility.yul\":6663:7053   */\n      swap3\n      swap2\n      pop\n      pop\n      jump\t// out\n        /* \"#utility.yul\":7059:7334   */\n    tag_23:\n        /* \"#utility.yul\":7191:7194   */\n      0x00\n        /* \"#utility.yul\":7213:7308   */\n      tag_177\n        /* \"#utility.yul\":7304:7307   */\n      dup3\n        /* \"#utility.yul\":7295:7301   */\n      dup5\n        /* \"#utility.yul\":7213:7308   */\n      tag_81\n      jump\t// in\n    tag_177:\n        /* \"#utility.yul\":7206:7308   */\n      swap2\n      pop\n        /* \"#utility.yul\":7325:7328   */\n      dup2\n        /* \"#utility.yul\":7318:7328   */\n      swap1\n      pop\n        /* \"#utility.yul\":7059:7334   */\n      swap3\n      swap2\n      pop\n      pop\n      jump\t// out\n        /* \"#utility.yul\":7340:7512   */\n    tag_82:\n        /* \"#utility.yul\":7480:7504   */\n      0x50617469656e7420616c72656164792065786973747300000000000000000000\n        /* \"#utility.yul\":7476:7477   */\n      0x00\n        /* \"#utility.yul\":7468:7474   */\n      dup3\n        /* \"#utility.yul\":7464:7478   */\n      add\n        /* \"#utility.yul\":7457:7505   */\n      mstore\n        /* \"#utility.yul\":7340:7512   */\n      pop\n      jump\t// out\n        /* \"#utility.yul\":7518:7884   */\n    tag_83:\n        /* \"#utility.yul\":7660:7663   */\n      0x00\n        /* \"#utility.yul\":7681:7748   */\n      tag_180\n        /* \"#utility.yul\":7745:7747   */\n      0x16\n        /* \"#utility.yul\":7740:7743   */\n      dup4\n        /* \"#utility.yul\":7681:7748   */\n      tag_75\n      jump\t// in\n    tag_180:\n        /* \"#utility.yul\":7674:7748   */\n      swap2\n      pop\n        /* \"#utility.yul\":7757:7850   */\n      tag_181\n        /* \"#utility.yul\":7846:7849   */\n      dup3\n        /* \"#utility.yul\":7757:7850   */\n      tag_82\n      jump\t// in\n    tag_181:\n        /* \"#utility.yul\":7875:7877   */\n      0x20\n        /* \"#utility.yul\":7870:7873   */\n      dup3\n        /* \"#utility.yul\":7866:7878   */\n      add\n        /* \"#utility.yul\":7859:7878   */\n      swap1\n      pop\n        /* \"#utility.yul\":7518:7884   */\n      swap2\n      swap1\n      pop\n      jump\t// out\n        /* \"#utility.yul\":7890:8309   */\n    tag_26:\n        /* \"#utility.yul\":8056:8060   */\n      0x00\n        /* \"#utility.yul\":8094:8096   */\n      0x20\n        /* \"#utility.yul\":8083:8092   */\n      dup3\n        /* \"#utility.yul\":8079:8097   */\n      add\n        /* \"#utility.yul\":8071:8097   */\n      swap1\n      pop\n        /* \"#utility.yul\":8143:8152   */\n      dup2\n        /* \"#utility.yul\":8137:8141   */\n      dup2\n        /* \"#utility.yul\":8133:8153   */\n      sub\n        /* \"#utility.yul\":8129:8130   */\n      0x00\n        /* \"#utility.yul\":8118:8127   */\n      dup4\n        /* \"#utility.yul\":8114:8131   */\n      add\n        /* \"#utility.yul\":8107:8154   */\n      mstore\n        /* \"#utility.yul\":8171:8302   */\n      tag_183\n        /* \"#utility.yul\":8297:8301   */\n      dup2\n        /* \"#utility.yul\":8171:8302   */\n      tag_83\n      jump\t// in\n    tag_183:\n        /* \"#utility.yul\":8163:8302   */\n      swap1\n      pop\n        /* \"#utility.yul\":7890:8309   */\n      swap2\n      swap1\n      pop\n      jump\t// out\n        /* \"#utility.yul\":8315:8495   */\n    tag_84:\n        /* \"#utility.yul\":8363:8440   */\n      0x4e487b7100000000000000000000000000000000000000000000000000000000\n        /* \"#utility.yul\":8360:8361   */\n      0x00\n        /* \"#utility.yul\":8353:8441   */\n      mstore\n        /* \"#utility.yul\":8460:8464   */\n      0x22\n        /* \"#utility.yul\":8457:8458   */\n      0x04\n        /* \"#utility.yul\":8450:8465   */\n      mstore\n        /* \"#utility.yul\":8484:8488   */\n      0x24\n        /* \"#utility.yul\":8481:8482   */\n      0x00\n        /* \"#utility.yul\":8474:8489   */\n      revert\n        /* \"#utility.yul\":8501:8821   */\n    tag_44:\n        /* \"#utility.yul\":8545:8551   */\n      0x00\n        /* \"#utility.yul\":8582:8583   */\n      0x02\n        /* \"#utility.yul\":8576:8580   */\n      dup3\n        /* \"#utility.yul\":8572:8584   */\n      div\n        /* \"#utility.yul\":8562:8584   */\n      swap1\n      pop\n        /* \"#utility.yul\":8629:8630   */\n      0x01\n        /* \"#utility.yul\":8623:8627   */\n      dup3\n        /* \"#utility.yul\":8619:8631   */\n      and\n        /* \"#utility.yul\":8650:8668   */\n      dup1\n        /* \"#utility.yul\":8640:8721   */\n      tag_186\n      jumpi\n        /* \"#utility.yul\":8706:8710   */\n      0x7f\n        /* \"#utility.yul\":8698:8704   */\n      dup3\n        /* \"#utility.yul\":8694:8711   */\n      and\n        /* \"#utility.yul\":8684:8711   */\n      swap2\n      pop\n        /* \"#utility.yul\":8640:8721   */\n    tag_186:\n        /* \"#utility.yul\":8768:8770   */\n      0x20\n        /* \"#utility.yul\":8760:8766   */\n      dup3\n        /* \"#utility.yul\":8757:8771   */\n      lt\n        /* \"#utility.yul\":8737:8755   */\n      dup2\n        /* \"#utility.yul\":8734:8772   */\n      sub\n        /* \"#utility.yul\":8731:8815   */\n      tag_187\n      jumpi\n        /* \"#utility.yul\":8787:8805   */\n      tag_188\n      tag_84\n      jump\t// in\n    tag_188:\n        /* \"#utility.yul\":8731:8815   */\n    tag_187:\n        /* \"#utility.yul\":8552:8821   */\n      pop\n        /* \"#utility.yul\":8501:8821   */\n      swap2\n      swap1\n      pop\n      jump\t// out\n        /* \"#utility.yul\":8827:8968   */\n    tag_85:\n        /* \"#utility.yul\":8876:8880   */\n      0x00\n        /* \"#utility.yul\":8899:8902   */\n      dup2\n        /* \"#utility.yul\":8891:8902   */\n      swap1\n      pop\n        /* \"#utility.yul\":8922:8925   */\n      dup2\n        /* \"#utility.yul\":8919:8920   */\n      0x00\n        /* \"#utility.yul\":8912:8926   */\n      mstore\n        /* \"#utility.yul\":8956:8960   */\n      0x20\n        /* \"#utility.yul\":8953:8954   */\n      0x00\n        /* \"#utility.yul\":8943:8961   */\n      keccak256\n        /* \"#utility.yul\":8935:8961   */\n      swap1\n      pop\n        /* \"#utility.yul\":8827:8968   */\n      swap2\n      swap1\n      pop\n      jump\t// out\n        /* \"#utility.yul\":8974:9067   */\n    tag_86:\n        /* \"#utility.yul\":9011:9017   */\n      0x00\n        /* \"#utility.yul\":9058:9060   */\n      0x20\n        /* \"#utility.yul\":9053:9055   */\n      0x1f\n        /* \"#utility.yul\":9046:9051   */\n      dup4\n        /* \"#utility.yul\":9042:9056   */\n      add\n        /* \"#utility.yul\":9038:9061   */\n      div\n        /* \"#utility.yul\":9028:9061   */\n      swap1\n      pop\n        /* \"#utility.yul\":8974:9067   */\n      swap2\n      swap1\n      pop\n      jump\t// out\n        /* \"#utility.yul\":9073:9180   */\n    tag_87:\n        /* \"#utility.yul\":9117:9125   */\n      0x00\n        /* \"#utility.yul\":9167:9172   */\n      dup3\n        /* \"#utility.yul\":9161:9165   */\n      dup3\n        /* \"#utility.yul\":9157:9173   */\n      shl\n        /* \"#utility.yul\":9136:9173   */\n      swap1\n      pop\n        /* \"#utility.yul\":9073:9180   */\n      swap3\n      swap2\n      pop\n      pop\n      jump\t// out\n        /* \"#utility.yul\":9186:9579   */\n    tag_88:\n        /* \"#utility.yul\":9255:9261   */\n      0x00\n        /* \"#utility.yul\":9305:9306   */\n      0x08\n        /* \"#utility.yul\":9293:9303   */\n      dup4\n        /* \"#utility.yul\":9289:9307   */\n      mul\n        /* \"#utility.yul\":9328:9425   */\n      tag_193\n        /* \"#utility.yul\":9358:9424   */\n      0xffffffffffffffffffffffffffffffffffffffffffffffffffffffffffffffff\n        /* \"#utility.yul\":9347:9356   */\n      dup3\n        /* \"#utility.yul\":9328:9425   */\n      tag_87\n      jump\t// in\n    tag_193:\n        /* \"#utility.yul\":9446:9485   */\n      tag_194\n        /* \"#utility.yul\":9476:9484   */\n      dup7\n        /* \"#utility.yul\":9465:9474   */\n      dup4\n        /* \"#utility.yul\":9446:9485   */\n      tag_87\n      jump\t// in\n    tag_194:\n        /* \"#utility.yul\":9434:9485   */\n      swap6\n      pop\n        /* \"#utility.yul\":9518:9522   */\n      dup1\n        /* \"#utility.yul\":9514:9523   */\n      not\n        /* \"#utility.yul\":9507:9512   */\n      dup5\n        /* \"#utility.yul\":9503:9524   */\n      and\n        /* \"#utility.yul\":9494:9524   */\n      swap4\n      pop\n        /* \"#utility.yul\":9567:9571   */\n      dup1\n        /* \"#utility.yul\":9557:9565   */\n      dup7\n        /* \"#utility.yul\":9553:9572   */\n      and\n        /* \"#utility.yul\":9546:9551   */\n      dup5\n        /* \"#utility.yul\":9543:9573   */\n      or\n        /* \"#utility.yul\":9533:9573   */\n      swap3\n      pop\n        /* \"#utility.yul\":9262:9579   */\n      pop\n      pop\n        /* \"#utility.yul\":9186:9579   */\n      swap4\n      swap3\n      pop\n      pop\n      pop\n      jump\t// out\n        /* \"#utility.yul\":9585:9645   */\n    tag_89:\n        /* \"#utility.yul\":9613:9616   */\n      0x00\n        /* \"#utility.yul\":9634:9639   */\n      dup2\n        /* \"#utility.yul\":9627:9639   */\n      swap1\n      pop\n        /* \"#utility.yul\":9585:9645   */\n      swap2\n      swap1\n      pop\n      jump\t// out\n        /* \"#utility.yul\":9651:9793   */\n    tag_90:\n        /* \"#utility.yul\":9701:9710   */\n      0x00\n        /* \"#utility.yul\":9734:9787   */\n      tag_197\n        /* \"#utility.yul\":9752:9786   */\n      tag_198\n        /* \"#utility.yul\":9761:9785   */\n      tag_199\n        /* \"#utility.yul\":9779:9784   */\n      dup5\n        /* \"#utility.yul\":9761:9785   */\n      tag_78\n      jump\t// in\n    tag_199:\n        /* \"#utility.yul\":9752:9786   */\n      tag_89\n      jump\t// in\n    tag_198:\n        /* \"#utility.yul\":9734:9787   */\n      tag_78\n      jump\t// in\n    tag_197:\n        /* \"#utility.yul\":9721:9787   */\n      swap1\n      pop\n        /* \"#utility.yul\":9651:9793   */\n      swap2\n      swap1\n      pop\n      jump\t// out\n        /* \"#utility.yul\":9799:9874   */\n    tag_91:\n        /* \"#utility.yul\":9842:9845   */\n      0x00\n        /* \"#utility.yul\":9863:9868   */\n      dup2\n        /* \"#utility.yul\":9856:9868   */\n      swap1\n      pop\n        /* \"#utility.yul\":9799:9874   */\n      swap2\n      swap1\n      pop\n      jump\t// out\n        /* \"#utility.yul\":9880:10149   */\n    tag_92:\n        /* \"#utility.yul\":9990:10029   */\n      tag_202\n        /* \"#utility.yul\":10021:10028   */\n      dup4\n        /* \"#utility.yul\":9990:10029   */\n      tag_90\n      jump\t// in\n    tag_202:\n        /* \"#utility.yul\":10051:10142   */\n      tag_203\n        /* \"#utility.yul\":10100:10141   */\n      tag_204\n        /* \"#utility.yul\":10124:10140   */\n      dup3\n        /* \"#utility.yul\":10100:10141   */\n      tag_91\n      jump\t// in\n    tag_204:\n        /* \"#utility.yul\":10092:10098   */\n      dup5\n        /* \"#utility.yul\":10085:10089   */\n      dup5\n        /* \"#utility.yul\":10079:10090   */\n      sload\n        /* \"#utility.yul\":10051:10142   */\n      tag_88\n      jump\t// in\n    tag_203:\n        /* \"#utility.yul\":10045:10049   */\n      dup3\n        /* \"#utility.yul\":10038:10143   */\n      sstore\n        /* \"#utility.yul\":9956:10149   */\n      pop\n        /* \"#utility.yul\":9880:10149   */\n      pop\n      pop\n      pop\n      jump\t// out\n        /* \"#utility.yul\":10155:10228   */\n    tag_93:\n        /* \"#utility.yul\":10200:10203   */\n      0x00\n        /* \"#utility.yul\":10221:10222   */\n      0x00\n        /* \"#utility.yul\":10214:10222   */\n      swap1\n      pop\n        /* \"#utility.yul\":10155:10228   */\n      swap1\n      jump\t// out\n        /* \"#utility.yul\":10234:10423   */\n    tag_94:\n        /* \"#utility.yul\":10311:10343   */\n      tag_207\n      tag_93\n      jump\t// in\n    tag_207:\n        /* \"#utility.yul\":10352:10417   */\n      tag_208\n        /* \"#utility.yul\":10410:10416   */\n      dup2\n        /* \"#utility.yul\":10402:10408   */\n      dup5\n        /* \"#utility.yul\":10396:10400   */\n      dup5\n        /* \"#utility.yul\":10352:10417   */\n      tag_92\n      jump\t// in\n    tag_208:\n        /* \"#utility.yul\":10287:10423   */\n      pop\n        /* \"#utility.yul\":10234:10423   */\n      pop\n      pop\n      jump\t// out\n        /* \"#utility.yul\":10429:10615   */\n    tag_95:\n        /* \"#utility.yul\":10489:10609   */\n    tag_210:\n        /* \"#utility.yul\":10506:10509   */\n      dup2\n        /* \"#utility.yul\":10499:10504   */\n      dup2\n        /* \"#utility.yul\":10496:10510   */\n      lt\n        /* \"#utility.yul\":10489:10609   */\n      iszero\n      tag_212\n      jumpi\n        /* \"#utility.yul\":10560:10599   */\n      tag_213\n        /* \"#utility.yul\":10597:10598   */\n      0x00\n        /* \"#utility.yul\":10590:10595   */\n      dup3\n        /* \"#utility.yul\":10560:10599   */\n      tag_94\n      jump\t// in\n    tag_213:\n        /* \"#utility.yul\":10533:10534   */\n      0x01\n        /* \"#utility.yul\":10526:10531   */\n      dup2\n        /* \"#utility.yul\":10522:10535   */\n      add\n        /* \"#utility.yul\":10513:10535   */\n      swap1\n      pop\n        /* \"#utility.yul\":10489:10609   */\n      jump(tag_210)\n    tag_212:\n        /* \"#utility.yul\":10429:10615   */\n      pop\n      pop\n      jump\t// out\n        /* \"#utility.yul\":10621:11164   */\n    tag_96:\n        /* \"#utility.yul\":10722:10724   */\n      0x1f\n        /* \"#utility.yul\":10717:10720   */\n      dup3\n        /* \"#utility.yul\":10714:10725   */\n      gt\n        /* \"#utility.yul\":10711:11157   */\n      iszero\n      tag_215\n      jumpi\n        /* \"#utility.yul\":10756:10794   */\n      tag_216\n        /* \"#utility.yul\":10788:10793   */\n      dup2\n        /* \"#utility.yul\":10756:10794   */\n      tag_85\n      jump\t// in\n    tag_216:\n        /* \"#utility.yul\":10840:10869   */\n      tag_217\n        /* \"#utility.yul\":10858:10868   */\n      dup5\n        /* \"#utility.yul\":10840:10869   */\n      tag_86\n      jump\t// in\n    tag_217:\n        /* \"#utility.yul\":10830:10838   */\n      dup2\n        /* \"#utility.yul\":10826:10870   */\n      add\n        /* \"#utility.yul\":11023:11025   */\n      0x20\n        /* \"#utility.yul\":11011:11021   */\n      dup6\n        /* \"#utility.yul\":11008:11026   */\n      lt\n        /* \"#utility.yul\":11005:11054   */\n      iszero\n      tag_218\n      jumpi\n        /* \"#utility.yul\":11044:11052   */\n      dup2\n        /* \"#utility.yul\":11029:11052   */\n      swap1\n      pop\n        /* \"#utility.yul\":11005:11054   */\n    tag_218:\n        /* \"#utility.yul\":11067:11147   */\n      tag_219\n        /* \"#utility.yul\":11123:11145   */\n      tag_220\n        /* \"#utility.yul\":11141:11144   */\n      dup6\n        /* \"#utility.yul\":11123:11145   */\n      tag_86\n      jump\t// in\n    tag_220:\n        /* \"#utility.yul\":11113:11121   */\n      dup4\n        /* \"#utility.yul\":11109:11146   */\n      add\n        /* \"#utility.yul\":11096:11107   */\n      dup3\n        /* \"#utility.yul\":11067:11147   */\n      tag_95\n      jump\t// in\n    tag_219:\n        /* \"#utility.yul\":10726:11157   */\n      pop\n      pop\n        /* \"#utility.yul\":10711:11157   */\n    tag_215:\n        /* \"#utility.yul\":10621:11164   */\n      pop\n      pop\n      pop\n      jump\t// out\n        /* \"#utility.yul\":11170:11287   */\n    tag_97:\n        /* \"#utility.yul\":11224:11232   */\n      0x00\n        /* \"#utility.yul\":11274:11279   */\n      dup3\n        /* \"#utility.yul\":11268:11272   */\n      dup3\n        /* \"#utility.yul\":11264:11280   */\n      shr\n        /* \"#utility.yul\":11243:11280   */\n      swap1\n      pop\n        /* \"#utility.yul\":11170:11287   */\n      swap3\n      swap2\n      pop\n      pop\n      jump\t// out\n        /* \"#utility.yul\":11293:11462   */\n    tag_98:\n        /* \"#utility.yul\":11337:11343   */\n      0x00\n        /* \"#utility.yul\":11370:11421   */\n      tag_223\n        /* \"#utility.yul\":11418:11419   */\n      0x00\n        /* \"#utility.yul\":11414:11420   */\n      not\n        /* \"#utility.yul\":11406:11411   */\n      dup5\n        /* \"#utility.yul\":11403:11404   */\n      0x08\n        /* \"#utility.yul\":11399:11412   */\n      mul\n        /* \"#utility.yul\":11370:11421   */\n      tag_97\n      jump\t// in\n    tag_223:\n        /* \"#utility.yul\":11366:11422   */\n      not\n        /* \"#utility.yul\":11451:11455   */\n      dup1\n        /* \"#utility.yul\":11445:11449   */\n      dup4\n        /* \"#utility.yul\":11441:11456   */\n      and\n        /* \"#utility.yul\":11431:11456   */\n      swap2\n      pop\n        /* \"#utility.yul\":11344:11462   */\n      pop\n        /* \"#utility.yul\":11293:11462   */\n      swap3\n      swap2\n      pop\n      pop\n      jump\t// out\n        /* \"#utility.yul\":11467:11762   */\n    tag_99:\n        /* \"#utility.yul\":11543:11547   */\n      0x00\n        /* \"#utility.yul\":11689:11718   */\n      tag_225\n        /* \"#utility.yul\":11714:11717   */\n      dup4\n        /* \"#utility.yul\":11708:11712   */\n      dup4\n        /* \"#utility.yul\":11689:11718   */\n      tag_98\n      jump\t// in\n    tag_225:\n        /* \"#utility.yul\":11681:11718   */\n      swap2\n      pop\n        /* \"#utility.yul\":11751:11754   */\n      dup3\n        /* \"#utility.yul\":11748:11749   */\n      0x02\n        /* \"#utility.yul\":11744:11755   */\n      mul\n        /* \"#utility.yul\":11738:11742   */\n      dup3\n        /* \"#utility.yul\":11735:11756   */\n      or\n        /* \"#utility.yul\":11727:11756   */\n      swap1\n      pop\n        /* \"#utility.yul\":11467:11762   */\n      swap3\n      swap2\n      pop\n      pop\n      jump\t// out\n        /* \"#utility.yul\":11767:13162   */\n    tag_29:\n        /* \"#utility.yul\":11884:11921   */\n      tag_227\n        /* \"#utility.yul\":11917:11920   */\n      dup3\n        /* \"#utility.yul\":11884:11921   */\n      tag_74\n      jump\t// in\n    tag_227:\n        /* \"#utility.yul\":11986:12004   */\n      0xffffffffffffffff\n        /* \"#utility.yul\":11978:11984   */\n      dup2\n        /* \"#utility.yul\":11975:12005   */\n      gt\n        /* \"#utility.yul\":11972:12028   */\n      iszero\n      tag_228\n      jumpi\n        /* \"#utility.yul\":12008:12026   */\n      tag_229\n      tag_65\n      jump\t// in\n    tag_229:\n        /* \"#utility.yul\":11972:12028   */\n    tag_228:\n        /* \"#utility.yul\":12052:12090   */\n      tag_230\n        /* \"#utility.yul\":12084:12088   */\n      dup3\n        /* \"#utility.yul\":12078:12089   */\n      sload\n        /* \"#utility.yul\":12052:12090   */\n      tag_44\n      jump\t// in\n    tag_230:\n        /* \"#utility.yul\":12137:12204   */\n      tag_231\n        /* \"#utility.yul\":12197:12203   */\n      dup3\n        /* \"#utility.yul\":12189:12195   */\n      dup3\n        /* \"#utility.yul\":12183:12187   */\n      dup6\n        /* \"#utility.yul\":12137:12204   */\n      tag_96\n      jump\t// in\n    tag_231:\n        /* \"#utility.yul\":12231:12232   */\n      0x00\n        /* \"#utility.yul\":12255:12259   */\n      0x20\n        /* \"#utility.yul\":12242:12259   */\n      swap1\n      pop\n        /* \"#utility.yul\":12287:12289   */\n      0x1f\n        /* \"#utility.yul\":12279:12285   */\n      dup4\n        /* \"#utility.yul\":12276:12290   */\n      gt\n        /* \"#utility.yul\":12304:12305   */\n      0x01\n        /* \"#utility.yul\":12299:12917   */\n      dup2\n      eq\n      tag_233\n      jumpi\n        /* \"#utility.yul\":12961:12962   */\n      0x00\n        /* \"#utility.yul\":12978:12984   */\n      dup5\n        /* \"#utility.yul\":12975:13052   */\n      iszero\n      tag_234\n      jumpi\n        /* \"#utility.yul\":13027:13036   */\n      dup3\n        /* \"#utility.yul\":13022:13025   */\n      dup8\n        /* \"#utility.yul\":13018:13037   */\n      add\n        /* \"#utility.yul\":13012:13038   */\n      mload\n        /* \"#utility.yul\":13003:13038   */\n      swap1\n      pop\n        /* \"#utility.yul\":12975:13052   */\n    tag_234:\n        /* \"#utility.yul\":13078:13145   */\n      tag_235\n        /* \"#utility.yul\":13138:13144   */\n      dup6\n        /* \"#utility.yul\":13131:13136   */\n      dup3\n        /* \"#utility.yul\":13078:13145   */\n      tag_99\n      jump\t// in\n    tag_235:\n        /* \"#utility.yul\":13072:13076   */\n      dup7\n        /* \"#utility.yul\":13065:13146   */\n      sstore\n        /* \"#utility.yul\":12934:13156   */\n      pop\n        /* \"#utility.yul\":12269:13156   */\n      jump(tag_232)\n        /* \"#utility.yul\":12299:12917   */\n    tag_233:\n        /* \"#utility.yul\":12351:12355   */\n      0x1f\n        /* \"#utility.yul\":12347:12356   */\n      not\n        /* \"#utility.yul\":12339:12345   */\n      dup5\n        /* \"#utility.yul\":12335:12357   */\n      and\n        /* \"#utility.yul\":12385:12422   */\n      tag_236\n        /* \"#utility.yul\":12417:12421   */\n      dup7\n        /* \"#utility.yul\":12385:12422   */\n      tag_85\n      jump\t// in\n    tag_236:\n        /* \"#utility.yul\":12444:12445   */\n      0x00\n        /* \"#utility.yul\":12458:12666   */\n    tag_237:\n        /* \"#utility.yul\":12472:12479   */\n      dup3\n        /* \"#utility.yul\":12469:12470   */\n      dup2\n        /* \"#utility.yul\":12466:12480   */\n      lt\n        /* \"#utility.yul\":12458:12666   */\n      iszero\n      tag_239\n      jumpi\n        /* \"#utility.yul\":12551:12560   */\n      dup5\n        /* \"#utility.yul\":12546:12549   */\n      dup10\n        /* \"#utility.yul\":12542:12561   */\n      add\n        /* \"#utility.yul\":12536:12562   */\n      mload\n        /* \"#utility.yul\":12528:12534   */\n      dup3\n        /* \"#utility.yul\":12521:12563   */\n      sstore\n        /* \"#utility.yul\":12602:12603   */\n      0x01\n        /* \"#utility.yul\":12594:12600   */\n      dup3\n        /* \"#utility.yul\":12590:12604   */\n      add\n        /* \"#utility.yul\":12580:12604   */\n      swap2\n      pop\n        /* \"#utility.yul\":12649:12651   */\n      0x20\n        /* \"#utility.yul\":12638:12647   */\n      dup6\n        /* \"#utility.yul\":12634:12652   */\n      add\n        /* \"#utility.yul\":12621:12652   */\n      swap5\n      pop\n        /* \"#utility.yul\":12495:12499   */\n      0x20\n        /* \"#utility.yul\":12492:12493   */\n      dup2\n        /* \"#utility.yul\":12488:12500   */\n      add\n        /* \"#utility.yul\":12483:12500   */\n      swap1\n      pop\n        /* \"#utility.yul\":12458:12666   */\n      jump(tag_237)\n    tag_239:\n        /* \"#utility.yul\":12694:12700   */\n      dup7\n        /* \"#utility.yul\":12685:12692   */\n      dup4\n        /* \"#utility.yul\":12682:12701   */\n      lt\n        /* \"#utility.yul\":12679:12858   */\n      iszero\n      tag_240\n      jumpi\n        /* \"#utility.yul\":12752:12761   */\n      dup5\n        /* \"#utility.yul\":12747:12750   */\n      dup10\n        /* \"#utility.yul\":12743:12762   */\n      add\n        /* \"#utility.yul\":12737:12763   */\n      mload\n        /* \"#utility.yul\":12795:12843   */\n      tag_241\n        /* \"#utility.yul\":12837:12841   */\n      0x1f\n        /* \"#utility.yul\":12829:12835   */\n      dup10\n        /* \"#utility.yul\":12825:12842   */\n      and\n        /* \"#utility.yul\":12814:12823   */\n      dup3\n        /* \"#utility.yul\":12795:12843   */\n      tag_98\n      jump\t// in\n    tag_241:\n        /* \"#utility.yul\":12787:12793   */\n      dup4\n        /* \"#utility.yul\":12780:12844   */\n      sstore\n        /* \"#utility.yul\":12702:12858   */\n      pop\n        /* \"#utility.yul\":12679:12858   */\n    tag_240:\n        /* \"#utility.yul\":12904:12905   */\n      0x01\n        /* \"#utility.yul\":12900:12901   */\n      0x02\n        /* \"#utility.yul\":12892:12898   */\n      dup9\n        /* \"#utility.yul\":12888:12902   */\n      mul\n        /* \"#utility.yul\":12884:12906   */\n      add\n        /* \"#utility.yul\":12878:12882   */\n      dup9\n        /* \"#utility.yul\":12871:12907   */\n      sstore\n        /* \"#utility.yul\":12306:12917   */\n      pop\n      pop\n      pop\n        /* \"#utility.yul\":12269:13156   */\n    tag_232:\n      pop\n        /* \"#utility.yul\":11859:13162   */\n      pop\n      pop\n      pop\n        /* \"#utility.yul\":11767:13162   */\n      pop\n      pop\n      jump\t// out\n        /* \"#utility.yul\":13168:13591   */\n    tag_34:\n        /* \"#utility.yul\":13309:13313   */\n      0x00\n        /* \"#utility.yul\":13347:13349   */\n      0x40\n        /* \"#utility.yul\":13336:13345   */\n      dup3\n        /* \"#utility.yul\":13332:13350   */\n      add\n        /* \"#utility.yul\":13324:13350   */\n      swap1\n      pop\n        /* \"#utility.yul\":13396:13405   */\n      dup2\n        /* \"#utility.yul\":13390:13394   */\n      dup2\n        /* \"#utility.yul\":13386:13406   */\n      sub\n        /* \"#utility.yul\":13382:13383   */\n      0x00\n        /* \"#utility.yul\":13371:13380   */\n      dup4\n        /* \"#utility.yul\":13367:13384   */\n      add\n        /* \"#utility.yul\":13360:13407   */\n      mstore\n        /* \"#utility.yul\":13424:13502   */\n      tag_243\n        /* \"#utility.yul\":13497:13501   */\n      dup2\n        /* \"#utility.yul\":13488:13494   */\n      dup6\n        /* \"#utility.yul\":13424:13502   */\n      tag_77\n      jump\t// in\n    tag_243:\n        /* \"#utility.yul\":13416:13502   */\n      swap1\n      pop\n        /* \"#utility.yul\":13512:13584   */\n      tag_244\n        /* \"#utility.yul\":13580:13582   */\n      0x20\n        /* \"#utility.yul\":13569:13578   */\n      dup4\n        /* \"#utility.yul\":13565:13583   */\n      add\n        /* \"#utility.yul\":13556:13562   */\n      dup5\n        /* \"#utility.yul\":13512:13584   */\n      tag_79\n      jump\t// in\n    tag_244:\n        /* \"#utility.yul\":13168:13591   */\n      swap4\n      swap3\n      pop\n      pop\n      pop\n      jump\t// out\n        /* \"#utility.yul\":13597:13769   */\n    tag_100:\n        /* \"#utility.yul\":13737:13761   */\n      0x50617469656e7420646f6573206e6f7420657869737400000000000000000000\n        /* \"#utility.yul\":13733:13734   */\n      0x00\n        /* \"#utility.yul\":13725:13731   */\n      dup3\n        /* \"#utility.yul\":13721:13735   */\n      add\n        /* \"#utility.yul\":13714:13762   */\n      mstore\n        /* \"#utility.yul\":13597:13769   */\n      pop\n      jump\t// out\n        /* \"#utility.yul\":13775:14141   */\n    tag_101:\n        /* \"#utility.yul\":13917:13920   */\n      0x00\n        /* \"#utility.yul\":13938:14005   */\n      tag_247\n        /* \"#utility.yul\":14002:14004   */\n      0x16\n        /* \"#utility.yul\":13997:14000   */\n      dup4\n        /* \"#utility.yul\":13938:14005   */\n      tag_75\n      jump\t// in\n    tag_247:\n        /* \"#utility.yul\":13931:14005   */\n      swap2\n      pop\n        /* \"#utility.yul\":14014:14107   */\n      tag_248\n        /* \"#utility.yul\":14103:14106   */\n      dup3\n        /* \"#utility.yul\":14014:14107   */\n      tag_100\n      jump\t// in\n    tag_248:\n        /* \"#utility.yul\":14132:14134   */\n      0x20\n        /* \"#utility.yul\":14127:14130   */\n      dup3\n        /* \"#utility.yul\":14123:14135   */\n      add\n        /* \"#utility.yul\":14116:14135   */\n      swap1\n      pop\n        /* \"#utility.yul\":13775:14141   */\n      swap2\n      swap1\n      pop\n      jump\t// out\n        /* \"#utility.yul\":14147:14566   */\n    tag_41:\n        /* \"#utility.yul\":14313:14317   */\n      0x00\n        /* \"#utility.yul\":14351:14353   */\n      0x20\n        /* \"#utility.yul\":14340:14349   */\n      dup3\n        /* \"#utility.yul\":14336:14354   */\n      add\n        /* \"#utility.yul\":14328:14354   */\n      swap1\n      pop\n        /* \"#utility.yul\":14400:14409   */\n      dup2\n        /* \"#utility.yul\":14394:14398   */\n      dup2\n        /* \"#utility.yul\":14390:14410   */\n      sub\n        /* \"#utility.yul\":14386:14387   */\n      0x00\n        /* \"#utility.yul\":14375:14384   */\n      dup4\n        /* \"#utility.yul\":14371:14388   */\n      add\n        /* \"#utility.yul\":14364:14411   */\n      mstore\n        /* \"#utility.yul\":14428:14559   */\n      tag_250\n        /* \"#utility.yul\":14554:14558   */\n      dup2\n        /* \"#utility.yul\":14428:14559   */\n      tag_101\n      jump\t// in\n    tag_250:\n        /* \"#utility.yul\":14420:14559   */\n      swap1\n      pop\n        /* \"#utility.yul\":14147:14566   */\n      swap2\n      swap1\n      pop\n      jump\t// out\n\n    auxdata: 0xa2646970667358221220f2d272c1abfb117c6590720bfb2c9edc4c35fd0e9743175fe134517fd95b2ef864736f6c634300081e0033\n}\n",
    "bytecode": {
      "linkReferences": {},
      "object": "6080604052348015600e575f5ffd5b50610c658061001c5f395ff3fe608060405234801561000f575f5ffd5b506004361061003f575f3560e01c80630c380fc9146100435780634b96dec11461005f578063e79a7a2e1461008f575b5f5ffd5b61005d60048036038101906100589190610627565b6100c2565b005b610079600480360381019061007491906106cb565b610230565b604051610086919061072c565b60405180910390f35b6100a960048036038101906100a491906106cb565b610263565b6040516100b994939291906107bd565b60405180910390f35b6001836040516100d2919061084f565b90815260200160405180910390205f9054906101000a900460ff161561012d576040517f08c379a0000000000000000000000000000000000000000000000000000000008152600401610124906108af565b60405180910390fd5b5f4290506040518060800160405280858152602001848152602001838152602001828152505f85604051610161919061084f565b90815260200160405180910390205f820151815f0190816101829190610aca565b5060208201518160010190816101989190610aca565b5060408201518160020190816101ae9190610aca565b5060608201518160030155905050600180856040516101cd919061084f565b90815260200160405180910390205f6101000a81548160ff0219169083151502179055507faaee5e16f938e76ad0568f8a0674f5c0c325d8d5502be320fbeb9e33ff04a0da8482604051610222929190610b99565b60405180910390a150505050565b5f600182604051610241919061084f565b90815260200160405180910390205f9054906101000a900460ff169050919050565b60608060605f600185604051610279919061084f565b90815260200160405180910390205f9054906101000a900460ff166102d3576040517f08c379a00000000000000000000000000000000000000000000000000000000081526004016102ca90610c11565b60405180910390fd5b5f5f866040516102e3919061084f565b90815260200160405180910390206040518060800160405290815f8201805461030b906108fa565b80601f0160208091040260200160405190810160405280929190818152602001828054610337906108fa565b80156103825780601f1061035957610100808354040283529160200191610382565b820191905f5260205f20905b81548152906001019060200180831161036557829003601f168201915b5050505050815260200160018201805461039b906108fa565b80601f01602080910402602001604051908101604052809291908181526020018280546103c7906108fa565b80156104125780601f106103e957610100808354040283529160200191610412565b820191905f5260205f20905b8154815290600101906020018083116103f557829003601f168201915b5050505050815260200160028201805461042b906108fa565b80601f0160208091040260200160405190810160405280929190818152602001828054610457906108fa565b80156104a25780601f10610479576101008083540402835291602001916104a2565b820191905f5260205f20905b81548152906001019060200180831161048557829003601f168201915b505050505081526020016003820154815250509050805f01518160200151826040015183606001519450945094509450509193509193565b5f604051905090565b5f5ffd5b5f5ffd5b5f5ffd5b5f5ffd5b5f601f19601f8301169050919050565b7f4e487b71000000000000000000000000000000000000000000000000000000005f52604160045260245ffd5b610539826104f3565b810181811067ffffffffffffffff8211171561055857610557610503565b5b80604052505050565b5f61056a6104da565b90506105768282610530565b919050565b5f67ffffffffffffffff82111561059557610594610503565b5b61059e826104f3565b9050602081019050919050565b828183375f83830152505050565b5f6105cb6105c68461057b565b610561565b9050828152602081018484840111156105e7576105e66104ef565b5b6105f28482856105ab565b509392505050565b5f82601f83011261060e5761060d6104eb565b5b813561061e8482602086016105b9565b91505092915050565b5f5f5f6060848603121561063e5761063d6104e3565b5b5f84013567ffffffffffffffff81111561065b5761065a6104e7565b5b610667868287016105fa565b935050602084013567ffffffffffffffff811115610688576106876104e7565b5b610694868287016105fa565b925050604084013567ffffffffffffffff8111156106b5576106b46104e7565b5b6106c1868287016105fa565b9150509250925092565b5f602082840312156106e0576106df6104e3565b5b5f82013567ffffffffffffffff8111156106fd576106fc6104e7565b5b610709848285016105fa565b91505092915050565b5f8115159050919050565b61072681610712565b82525050565b5f60208201905061073f5f83018461071d565b92915050565b5f81519050919050565b5f82825260208201905092915050565b8281835e5f83830152505050565b5f61077782610745565b610781818561074f565b935061079181856020860161075f565b61079a816104f3565b840191505092915050565b5f819050919050565b6107b7816107a5565b82525050565b5f6080820190508181035f8301526107d5818761076d565b905081810360208301526107e9818661076d565b905081810360408301526107fd818561076d565b905061080c60608301846107ae565b95945050505050565b5f81905092915050565b5f61082982610745565b6108338185610815565b935061084381856020860161075f565b80840191505092915050565b5f61085a828461081f565b915081905092915050565b7f50617469656e7420616c726561647920657869737473000000000000000000005f82015250565b5f61089960168361074f565b91506108a482610865565b602082019050919050565b5f6020820190508181035f8301526108c68161088d565b9050919050565b7f4e487b71000000000000000000000000000000000000000000000000000000005f52602260045260245ffd5b5f600282049050600182168061091157607f821691505b602082108103610924576109236108cd565b5b50919050565b5f819050815f5260205f209050919050565b5f6020601f8301049050919050565b5f82821b905092915050565b5f600883026109867fffffffffffffffffffffffffffffffffffffffffffffffffffffffffffffffff8261094b565b610990868361094b565b95508019841693508086168417925050509392505050565b5f819050919050565b5f6109cb6109c66109c1846107a5565b6109a8565b6107a5565b9050919050565b5f819050919050565b6109e4836109b1565b6109f86109f0826109d2565b848454610957565b825550505050565b5f5f905090565b610a0f610a00565b610a1a8184846109db565b505050565b5b81811015610a3d57610a325f82610a07565b600181019050610a20565b5050565b601f821115610a8257610a538161092a565b610a5c8461093c565b81016020851015610a6b578190505b610a7f610a778561093c565b830182610a1f565b50505b505050565b5f82821c905092915050565b5f610aa25f1984600802610a87565b1980831691505092915050565b5f610aba8383610a93565b9150826002028217905092915050565b610ad382610745565b67ffffffffffffffff811115610aec57610aeb610503565b5b610af682546108fa565b610b01828285610a41565b5f60209050601f831160018114610b32575f8415610b20578287015190505b610b2a8582610aaf565b865550610b91565b601f198416610b408661092a565b5f5b82811015610b6757848901518255600182019150602085019450602081019050610b42565b86831015610b845784890151610b80601f891682610a93565b8355505b6001600288020188555050505b505050505050565b5f6040820190508181035f830152610bb1818561076d565b9050610bc060208301846107ae565b9392505050565b7f50617469656e7420646f6573206e6f74206578697374000000000000000000005f82015250565b5f610bfb60168361074f565b9150610c0682610bc7565b602082019050919050565b5f6020820190508181035f830152610c2881610bef565b905091905056fea2646970667358221220f2d272c1abfb117c6590720bfb2c9edc4c35fd0e9743175fe134517fd95b2ef864736f6c634300081e0033",
      "opcodes": "PUSH1 0x80 PUSH1 0x40 MSTORE CALLVALUE DUP1 ISZERO PUSH1 0xE JUMPI PUSH0 PUSH0 REVERT JUMPDEST POP PUSH2 0xC65 DUP1 PUSH2 0x1C PUSH0 CODECOPY PUSH0 RETURN INVALID PUSH1 0x80 PUSH1 0x40 MSTORE CALLVALUE DUP1 ISZERO PUSH2 0xF JUMPI PUSH0 PUSH0 REVERT JUMPDEST POP PUSH1 0x4 CALLDATASIZE LT PUSH2 0x3F JUMPI PUSH0 CALLDATALOAD PUSH1 0xE0 SHR DUP1 PUSH4 0xC380FC9 EQ PUSH2 0x43 JUMPI DUP1 PUSH4 0x4B96DEC1 EQ PUSH2 0x5F JUMPI DUP1 PUSH4 0xE79A7A2E EQ PUSH2 0x8F JUMPI JUMPDEST PUSH0 PUSH0 REVERT JUMPDEST PUSH2 0x5D PUSH1 0x4 DUP1 CALLDATASIZE SUB DUP2 ADD SWAP1 PUSH2 0x58 SWAP2 SWAP1 PUSH2 0x627 JUMP JUMPDEST PUSH2 0xC2 JUMP JUMPDEST STOP JUMPDEST PUSH2 0x79 PUSH1 0x4 DUP1 CALLDATASIZE SUB DUP2 ADD SWAP1 PUSH2 0x74 SWAP2 SWAP1 PUSH2 0x6CB JUMP JUMPDEST PUSH2 0x230 JUMP JUMPDEST PUSH1 0x40 MLOAD PUSH2 0x86 SWAP2 SWAP1 PUSH2 0x72C JUMP JUMPDEST PUSH1 0x40 MLOAD DUP1 SWAP2 SUB SWAP1 RETURN JUMPDEST PUSH2 0xA9 PUSH1 0x4 DUP1 CALLDATASIZE SUB DUP2 ADD SWAP1 PUSH2 0xA4 SWAP2 SWAP1 PUSH2 0x6CB JUMP JUMPDEST PUSH2 0x263 JUMP JUMPDEST PUSH1 0x40 MLOAD PUSH2 0xB9 SWAP5 SWAP4 SWAP3 SWAP2 SWAP1 PUSH2 0x7BD JUMP JUMPDEST PUSH1 0x40 MLOAD DUP1 SWAP2 SUB SWAP1 RETURN JUMPDEST PUSH1 0x1 DUP4 PUSH1 0x40 MLOAD PUSH2 0xD2 SWAP2 SWAP1 PUSH2 0x84F JUMP JUMPDEST SWAP1 DUP2 MSTORE PUSH1 0x20 ADD PUSH1 0x40 MLOAD DUP1 SWAP2 SUB SWAP1 KECCAK256 PUSH0 SWAP1 SLOAD SWAP1 PUSH2 0x100 EXP SWAP1 DIV PUSH1 0xFF AND ISZERO PUSH2 0x12D JUMPI PUSH1 0x40 MLOAD PUSH32 0x8C379A000000000000000000000000000000000000000000000000000000000 DUP2 MSTORE PUSH1 0x4 ADD PUSH2 0x124 SWAP1 PUSH2 0x8AF JUMP JUMPDEST PUSH1 0x40 MLOAD DUP1 SWAP2 SUB SWAP1 REVERT JUMPDEST PUSH0 TIMESTAMP SWAP1 POP PUSH1 0x40 MLOAD DUP1 PUSH1 0x80 ADD PUSH1 0x40 MSTORE DUP1 DUP6 DUP2 MSTORE PUSH1 0x20 ADD DUP5 DUP2 MSTORE PUSH1 0x20 ADD DUP4 DUP2 MSTORE PUSH1 0x20 ADD DUP3 DUP2 MSTORE POP PUSH0 DUP6 PUSH1 0x40 MLOAD PUSH2 0x161 SWAP2 SWAP1 PUSH2 0x84F JUMP JUMPDEST SWAP1 DUP2 MSTORE PUSH1 0x20 ADD PUSH1 0x40 MLOAD DUP1 SWAP2 SUB SWAP1 KECCAK256 PUSH0 DUP3 ADD MLOAD DUP2 PUSH0 ADD SWAP1 DUP2 PUSH2 0x182 SWAP2 SWAP1 PUSH2 0xACA JUMP JUMPDEST POP PUSH1 0x20 DUP3 ADD MLOAD DUP2 PUSH1 0x1 ADD SWAP1 DUP2 PUSH2 0x198 SWAP2 SWAP1 PUSH2 0xACA JUMP JUMPDEST POP PUSH1 0x40 DUP3 ADD MLOAD DUP2 PUSH1 0x2 ADD SWAP1 DUP2 PUSH2 0x1AE SWAP2 SWAP1 PUSH2 0xACA JUMP JUMPDEST POP PUSH1 0x60 DUP3 ADD MLOAD DUP2 PUSH1 0x3 ADD SSTORE SWAP1 POP POP PUSH1 0x1 DUP1 DUP6 PUSH1 0x40 MLOAD PUSH2 0x1CD SWAP2 SWAP1 PUSH2 0x84F JUMP JUMPDEST SWAP1 DUP2 MSTORE PUSH1 0x20 ADD PUSH1 0x40 MLOAD DUP1 SWAP2 SUB SWAP1 KECCAK256 PUSH0 PUSH2 0x100 EXP DUP2 SLOAD DUP2 PUSH1 0xFF MUL NOT AND SWAP1 DUP4 ISZERO ISZERO MUL OR SWAP1 SSTORE POP PUSH32 0xAAEE5E16F938E76AD0568F8A0674F5C0C325D8D5502BE320FBEB9E33FF04A0DA DUP5 DUP3 PUSH1 0x40 MLOAD PUSH2 0x222 SWAP3 SWAP2 SWAP1 PUSH2 0xB99 JUMP JUMPDEST PUSH1 0x40 MLOAD DUP1 SWAP2 SUB SWAP1 LOG1 POP POP POP POP JUMP JUMPDEST PUSH0 PUSH1 0x1 DUP3 PUSH1 0x40 MLOAD PUSH2 0x241 SWAP2 SWAP1 PUSH2 0x84F JUMP JUMPDEST SWAP1 DUP2 MSTORE PUSH1 0x20 ADD PUSH1 0x40 MLOAD DUP1 SWAP2 SUB SWAP1 KECCAK256 PUSH0 SWAP1 SLOAD SWAP1 PUSH2 0x100 EXP SWAP1 DIV PUSH1 0xFF AND SWAP1 POP SWAP2 SWAP1 POP JUMP JUMPDEST PUSH1 0x60 DUP1 PUSH1 0x60 PUSH0 PUSH1 0x1 DUP6 PUSH1 0x40 MLOAD PUSH2 0x279 SWAP2 SWAP1 PUSH2 0x84F JUMP JUMPDEST SWAP1 DUP2 MSTORE PUSH1 0x20 ADD PUSH1 0x40 MLOAD DUP1 SWAP2 SUB SWAP1 KECCAK256 PUSH0 SWAP1 SLOAD SWAP1 PUSH2 0x100 EXP SWAP1 DIV PUSH1 0xFF AND PUSH2 0x2D3 JUMPI PUSH1 0x40 MLOAD PUSH32 0x8C379A000000000000000000000000000000000000000000000000000000000 DUP2 MSTORE PUSH1 0x4 ADD PUSH2 0x2CA SWAP1 PUSH2 0xC11 JUMP JUMPDEST PUSH1 0x40 MLOAD DUP1 SWAP2 SUB SWAP1 REVERT JUMPDEST PUSH0 PUSH0 DUP7 PUSH1 0x40 MLOAD PUSH2 0x2E3 SWAP2 SWAP1 PUSH2 0x84F JUMP JUMPDEST SWAP1 DUP2 MSTORE PUSH1 0x20 ADD PUSH1 0x40 MLOAD DUP1 SWAP2 SUB SWAP1 KECCAK256 PUSH1 0x40 MLOAD DUP1 PUSH1 0x80 ADD PUSH1 0x40 MSTORE SWAP1 DUP2 PUSH0 DUP3 ADD DUP1 SLOAD PUSH2 0x30B SWAP1 PUSH2 0x8FA JUMP JUMPDEST DUP1 PUSH1 0x1F ADD PUSH1 0x20 DUP1 SWAP2 DIV MUL PUSH1 0x20 ADD PUSH1 0x40 MLOAD SWAP1 DUP2 ADD PUSH1 0x40 MSTORE DUP1 SWAP3 SWAP2 SWAP1 DUP2 DUP2 MSTORE PUSH1 0x20 ADD DUP3 DUP1 SLOAD PUSH2 0x337 SWAP1 PUSH2 0x8FA JUMP JUMPDEST DUP1 ISZERO PUSH2 0x382 JUMPI DUP1 PUSH1 0x1F LT PUSH2 0x359 JUMPI PUSH2 0x100 DUP1 DUP4 SLOAD DIV MUL DUP4 MSTORE SWAP2 PUSH1 0x20 ADD SWAP2 PUSH2 0x382 JUMP JUMPDEST DUP3 ADD SWAP2 SWAP1 PUSH0 MSTORE PUSH1 0x20 PUSH0 KECCAK256 SWAP1 JUMPDEST DUP2 SLOAD DUP2 MSTORE SWAP1 PUSH1 0x1 ADD SWAP1 PUSH1 0x20 ADD DUP1 DUP4 GT PUSH2 0x365 JUMPI DUP3 SWAP1 SUB PUSH1 0x1F AND DUP3 ADD SWAP2 JUMPDEST POP POP POP POP POP DUP2 MSTORE PUSH1 0x20 ADD PUSH1 0x1 DUP3 ADD DUP1 SLOAD PUSH2 0x39B SWAP1 PUSH2 0x8FA JUMP JUMPDEST DUP1 PUSH1 0x1F ADD PUSH1 0x20 DUP1 SWAP2 DIV MUL PUSH1 0x20 ADD PUSH1 0x40 MLOAD SWAP1 DUP2 ADD PUSH1 0x40 MSTORE DUP1 SWAP3 SWAP2 SWAP1 DUP2 DUP2 MSTORE PUSH1 0x20 ADD DUP3 DUP1 SLOAD PUSH2 0x3C7 SWAP1 PUSH2 0x8FA JUMP JUMPDEST DUP1 ISZERO PUSH2 0x412 JUMPI DUP1 PUSH1 0x1F LT PUSH2 0x3E9 JUMPI PUSH2 0x100 DUP1 DUP4 SLOAD DIV MUL DUP4 MSTORE SWAP2 PUSH1 0x20 ADD SWAP2 PUSH2 0x412 JUMP JUMPDEST DUP3 ADD SWAP2 SWAP1 PUSH0 MSTORE PUSH1 0x20 PUSH0 KECCAK256 SWAP1 JUMPDEST DUP2 SLOAD DUP2 MSTORE SWAP1 PUSH1 0x1 ADD SWAP1 PUSH1 0x20 ADD DUP1 DUP4 GT PUSH2 0x3F5 JUMPI DUP3 SWAP1 SUB PUSH1 0x1F AND DUP3 ADD SWAP2 JUMPDEST POP POP POP POP POP DUP2 MSTORE PUSH1 0x20 ADD PUSH1 0x2 DUP3 ADD DUP1 SLOAD PUSH2 0x42B SWAP1 PUSH2 0x8FA JUMP JUMPDEST DUP1 PUSH1 0x1F ADD PUSH1 0x20 DUP1 SWAP2 DIV MUL PUSH1 0x20 ADD PUSH1 0x40 MLOAD SWAP1 DUP2 ADD PUSH1 0x40 MSTORE DUP1 SWAP3 SWAP2 SWAP1 DUP2 DUP2 MSTORE PUSH1 0x20 ADD DUP3 DUP1 SLOAD PUSH2 0x457 SWAP1 PUSH2 0x8FA JUMP JUMPDEST DUP1 ISZERO PUSH2 0x4A2 JUMPI DUP1 PUSH1 0x1F LT PUSH2 0x479 JUMPI PUSH2 0x100 DUP1 DUP4 SLOAD DIV MUL DUP4 MSTORE SWAP2 PUSH1 0x20 ADD SWAP2 PUSH2 0x4A2 JUMP JUMPDEST DUP3 ADD SWAP2 SWAP1 PUSH0 MSTORE PUSH1 0x20 PUSH0 KECCAK256 SWAP1 JUMPDEST DUP2 SLOAD DUP2 MSTORE SWAP1 PUSH1 0x1 ADD SWAP1 PUSH1 0x20 ADD DUP1 DUP4 GT PUSH2 0x485 JUMPI DUP3 SWAP1 SUB PUSH1 0x1F AND DUP3 ADD SWAP2 JUMPDEST POP POP POP POP POP DUP2 MSTORE PUSH1 0x20 ADD PUSH1 0x3 DUP3 ADD SLOAD DUP2 MSTORE POP POP SWAP1 POP DUP1 PUSH0 ADD MLOAD DUP2 PUSH1 0x20 ADD MLOAD DUP3 PUSH1 0x40 ADD MLOAD DUP4 PUSH1 0x60 ADD MLOAD SWAP5 POP SWAP5 POP SWAP5 POP SWAP5 POP POP SWAP2 SWAP4 POP SWAP2 SWAP4 JUMP JUMPDEST PUSH0 PUSH1 0x40 MLOAD SWAP1 POP SWAP1 JUMP JUMPDEST PUSH0 PUSH0 REVERT JUMPDEST PUSH0 PUSH0 REVERT JUMPDEST PUSH0 PUSH0 REVERT JUMPDEST PUSH0 PUSH0 REVERT JUMPDEST PUSH0 PUSH1 0x1F NOT PUSH1 0x1F DUP4 ADD AND SWAP1 POP SWAP2 SWAP1 POP JUMP JUMPDEST PUSH32 0x4E487B7100000000000000000000000000000000000000000000000000000000 PUSH0 MSTORE PUSH1 0x41 PUSH1 0x4 MSTORE PUSH1 0x24 PUSH0 REVERT JUMPDEST PUSH2 0x539 DUP3 PUSH2 0x4F3 JUMP JUMPDEST DUP2 ADD DUP2 DUP2 LT PUSH8 0xFFFFFFFFFFFFFFFF DUP3 GT OR ISZERO PUSH2 0x558 JUMPI PUSH2 0x557 PUSH2 0x503 JUMP JUMPDEST JUMPDEST DUP1 PUSH1 0x40 MSTORE POP POP POP JUMP JUMPDEST PUSH0 PUSH2 0x56A PUSH2 0x4DA JUMP JUMPDEST SWAP1 POP PUSH2 0x576 DUP3 DUP3 PUSH2 0x530 JUMP JUMPDEST SWAP2 SWAP1 POP JUMP JUMPDEST PUSH0 PUSH8 0xFFFFFFFFFFFFFFFF DUP3 GT ISZERO PUSH2 0x595 JUMPI PUSH2 0x594 PUSH2 0x503 JUMP JUMPDEST JUMPDEST PUSH2 0x59E DUP3 PUSH2 0x4F3 JUMP JUMPDEST SWAP1 POP PUSH1 0x20 DUP2 ADD SWAP1 POP SWAP2 SWAP1 POP JUMP JUMPDEST DUP3 DUP2 DUP4 CALLDATACOPY PUSH0 DUP4 DUP4 ADD MSTORE POP POP POP JUMP JUMPDEST PUSH0 PUSH2 0x5CB PUSH2 0x5C6 DUP5 PUSH2 0x57B JUMP JUMPDEST PUSH2 0x561 JUMP JUMPDEST SWAP1 POP DUP3 DUP2 MSTORE PUSH1 0x20 DUP2 ADD DUP5 DUP5 DUP5 ADD GT ISZERO PUSH2 0x5E7 JUMPI PUSH2 0x5E6 PUSH2 0x4EF JUMP JUMPDEST JUMPDEST PUSH2 0x5F2 DUP5 DUP3 DUP6 PUSH2 0x5AB JUMP JUMPDEST POP SWAP4 SWAP3 POP POP POP JUMP JUMPDEST PUSH0 DUP3 PUSH1 0x1F DUP4 ADD SLT PUSH2 0x60E JUMPI PUSH2 0x60D PUSH2 0x4EB JUMP JUMPDEST JUMPDEST DUP2 CALLDATALOAD PUSH2 0x61E DUP5 DUP3 PUSH1 0x20 DUP7 ADD PUSH2 0x5B9 JUMP JUMPDEST SWAP2 POP POP SWAP3 SWAP2 POP POP JUMP JUMPDEST PUSH0 PUSH0 PUSH0 PUSH1 0x60 DUP5 DUP7 SUB SLT ISZERO PUSH2 0x63E JUMPI PUSH2 0x63D PUSH2 0x4E3 JUMP JUMPDEST JUMPDEST PUSH0 DUP5 ADD CALLDATALOAD PUSH8 0xFFFFFFFFFFFFFFFF DUP2 GT ISZERO PUSH2 0x65B JUMPI PUSH2 0x65A PUSH2 0x4E7 JUMP JUMPDEST JUMPDEST PUSH2 0x667 DUP7 DUP3 DUP8 ADD PUSH2 0x5FA JUMP JUMPDEST SWAP4 POP POP PUSH1 0x20 DUP5 ADD CALLDATALOAD PUSH8 0xFFFFFFFFFFFFFFFF DUP2 GT ISZERO PUSH2 0x688 JUMPI PUSH2 0x687 PUSH2 0x4E7 JUMP JUMPDEST JUMPDEST PUSH2 0x694 DUP7 DUP3 DUP8 ADD PUSH2 0x5FA JUMP JUMPDEST SWAP3 POP POP PUSH1 0x40 DUP5 ADD CALLDATALOAD PUSH8 0xFFFFFFFFFFFFFFFF DUP2 GT ISZERO PUSH2 0x6B5 JUMPI PUSH2 0x6B4 PUSH2 0x4E7 JUMP JUMPDEST JUMPDEST PUSH2 0x6C1 DUP7 DUP3 DUP8 ADD PUSH2 0x5FA JUMP JUMPDEST SWAP2 POP POP SWAP3 POP SWAP3 POP SWAP3 JUMP JUMPDEST PUSH0 PUSH1 0x20 DUP3 DUP5 SUB SLT ISZERO PUSH2 0x6E0 JUMPI PUSH2 0x6DF PUSH2 0x4E3 JUMP JUMPDEST JUMPDEST PUSH0 DUP3 ADD CALLDATALOAD PUSH8 0xFFFFFFFFFFFFFFFF DUP2 GT ISZERO PUSH2 0x6FD JUMPI PUSH2 0x6FC PUSH2 0x4E7 JUMP JUMPDEST JUMPDEST PUSH2 0x709 DUP5 DUP3 DUP6 ADD PUSH2 0x5FA JUMP JUMPDEST SWAP2 POP POP SWAP3 SWAP2 POP POP JUMP JUMPDEST PUSH0 DUP2 ISZERO ISZERO SWAP1 POP SWAP2 SWAP1 POP JUMP JUMPDEST PUSH2 0x726 DUP2 PUSH2 0x712 JUMP JUMPDEST DUP3 MSTORE POP POP JUMP JUMPDEST PUSH0 PUSH1 0x20 DUP3 ADD SWAP1 POP PUSH2 0x73F PUSH0 DUP4 ADD DUP5 PUSH2 0x71D JUMP JUMPDEST SWAP3 SWAP2 POP POP JUMP JUMPDEST PUSH0 DUP2 MLOAD SWAP1 POP SWAP2 SWAP1 POP JUMP JUMPDEST PUSH0 DUP3 DUP3 MSTORE PUSH1 0x20 DUP3 ADD SWAP1 POP SWAP3 SWAP2 POP POP JUMP JUMPDEST DUP3 DUP2 DUP4 MCOPY PUSH0 DUP4 DUP4 ADD MSTORE POP POP POP JUMP JUMPDEST PUSH0 PUSH2 0x777 DUP3 PUSH2 0x745 JUMP JUMPDEST PUSH2 0x781 DUP2 DUP6 PUSH2 0x74F JUMP JUMPDEST SWAP4 POP PUSH2 0x791 DUP2 DUP6 PUSH1 0x20 DUP7 ADD PUSH2 0x75F JUMP JUMPDEST PUSH2 0x79A DUP2 PUSH2 0x4F3 JUMP JUMPDEST DUP5 ADD SWAP2 POP POP SWAP3 SWAP2 POP POP JUMP JUMPDEST PUSH0 DUP2 SWAP1 POP SWAP2 SWAP1 POP JUMP JUMPDEST PUSH2 0x7B7 DUP2 PUSH2 0x7A5 JUMP JUMPDEST DUP3 MSTORE POP POP JUMP JUMPDEST PUSH0 PUSH1 0x80 DUP3 ADD SWAP1 POP DUP2 DUP2 SUB PUSH0 DUP4 ADD MSTORE PUSH2 0x7D5 DUP2 DUP8 PUSH2 0x76D JUMP JUMPDEST SWAP1 POP DUP2 DUP2 SUB PUSH1 0x20 DUP4 ADD MSTORE PUSH2 0x7E9 DUP2 DUP7 PUSH2 0x76D JUMP JUMPDEST SWAP1 POP DUP2 DUP2 SUB PUSH1 0x40 DUP4 ADD MSTORE PUSH2 0x7FD DUP2 DUP6 PUSH2 0x76D JUMP JUMPDEST SWAP1 POP PUSH2 0x80C PUSH1 0x60 DUP4 ADD DUP5 PUSH2 0x7AE JUMP JUMPDEST SWAP6 SWAP5 POP POP POP POP POP JUMP JUMPDEST PUSH0 DUP2 SWAP1 POP SWAP3 SWAP2 POP POP JUMP JUMPDEST PUSH0 PUSH2 0x829 DUP3 PUSH2 0x745 JUMP JUMPDEST PUSH2 0x833 DUP2 DUP6 PUSH2 0x815 JUMP JUMPDEST SWAP4 POP PUSH2 0x843 DUP2 DUP6 PUSH1 0x20 DUP7 ADD PUSH2 0x75F JUMP JUMPDEST DUP1 DUP5 ADD SWAP2 POP POP SWAP3 SWAP2 POP POP JUMP JUMPDEST PUSH0 PUSH2 0x85A DUP3 DUP5 PUSH2 0x81F JUMP JUMPDEST SWAP2 POP DUP2 SWAP1 POP SWAP3 SWAP2 POP POP JUMP JUMPDEST PUSH32 0x50617469656E7420616C72656164792065786973747300000000000000000000 PUSH0 DUP3 ADD MSTORE POP JUMP JUMPDEST PUSH0 PUSH2 0x899 PUSH1 0x16 DUP4 PUSH2 0x74F JUMP JUMPDEST SWAP2 POP PUSH2 0x8A4 DUP3 PUSH2 0x865 JUMP JUMPDEST PUSH1 0x20 DUP3 ADD SWAP1 POP SWAP2 SWAP1 POP JUMP JUMPDEST PUSH0 PUSH1 0x20 DUP3 ADD SWAP1 POP DUP2 DUP2 SUB PUSH0 DUP4 ADD MSTORE PUSH2 0x8C6 DUP2 PUSH2 0x88D JUMP JUMPDEST SWAP1 POP SWAP2 SWAP1 POP JUMP JUMPDEST PUSH32 0x4E487B7100000000000000000000000000000000000000000000000000000000 PUSH0 MSTORE PUSH1 0x22 PUSH1 0x4 MSTORE PUSH1 0x24 PUSH0 REVERT JUMPDEST PUSH0 PUSH1 0x2 DUP3 DIV SWAP1 POP PUSH1 0x1 DUP3 AND DUP1 PUSH2 0x911 JUMPI PUSH1 0x7F DUP3 AND SWAP2 POP JUMPDEST PUSH1 0x20 DUP3 LT DUP2 SUB PUSH2 0x924 JUMPI PUSH2 0x923 PUSH2 0x8CD JUMP JUMPDEST JUMPDEST POP SWAP2 SWAP1 POP JUMP JUMPDEST PUSH0 DUP2 SWAP1 POP DUP2 PUSH0 MSTORE PUSH1 0x20 PUSH0 KECCAK256 SWAP1 POP SWAP2 SWAP1 POP JUMP JUMPDEST PUSH0 PUSH1 0x20 PUSH1 0x1F DUP4 ADD DIV SWAP1 POP SWAP2 SWAP1 POP JUMP JUMPDEST PUSH0 DUP3 DUP3 SHL SWAP1 POP SWAP3 SWAP2 POP POP JUMP JUMPDEST PUSH0 PUSH1 0x8 DUP4 MUL PUSH2 0x986 PUSH32 0xFFFFFFFFFFFFFFFFFFFFFFFFFFFFFFFFFFFFFFFFFFFFFFFFFFFFFFFFFFFFFFFF DUP3 PUSH2 0x94B JUMP JUMPDEST PUSH2 0x990 DUP7 DUP4 PUSH2 0x94B JUMP JUMPDEST SWAP6 POP DUP1 NOT DUP5 AND SWAP4 POP DUP1 DUP7 AND DUP5 OR SWAP3 POP POP POP SWAP4 SWAP3 POP POP POP JUMP JUMPDEST PUSH0 DUP2 SWAP1 POP SWAP2 SWAP1 POP JUMP JUMPDEST PUSH0 PUSH2 0x9CB PUSH2 0x9C6 PUSH2 0x9C1 DUP5 PUSH2 0x7A5 JUMP JUMPDEST PUSH2 0x9A8 JUMP JUMPDEST PUSH2 0x7A5 JUMP JUMPDEST SWAP1 POP SWAP2 SWAP1 POP JUMP JUMPDEST PUSH0 DUP2 SWAP1 POP SWAP2 SWAP1 POP JUMP JUMPDEST PUSH2 0x9E4 DUP4 PUSH2 0x9B1 JUMP JUMPDEST PUSH2 0x9F8 PUSH2 0x9F0 DUP3 PUSH2 0x9D2 JUMP JUMPDEST DUP5 DUP5 SLOAD PUSH2 0x957 JUMP JUMPDEST DUP3 SSTORE POP POP POP POP JUMP JUMPDEST PUSH0 PUSH0 SWAP1 POP SWAP1 JUMP JUMPDEST PUSH2 0xA0F PUSH2 0xA00 JUMP JUMPDEST PUSH2 0xA1A DUP2 DUP5 DUP5 PUSH2 0x9DB JUMP JUMPDEST POP POP POP JUMP JUMPDEST JUMPDEST DUP2 DUP2 LT ISZERO PUSH2 0xA3D JUMPI PUSH2 0xA32 PUSH0 DUP3 PUSH2 0xA07 JUMP JUMPDEST PUSH1 0x1 DUP2 ADD SWAP1 POP PUSH2 0xA20 JUMP JUMPDEST POP POP JUMP JUMPDEST PUSH1 0x1F DUP3 GT ISZERO PUSH2 0xA82 JUMPI PUSH2 0xA53 DUP2 PUSH2 0x92A JUMP JUMPDEST PUSH2 0xA5C DUP5 PUSH2 0x93C JUMP JUMPDEST DUP2 ADD PUSH1 0x20 DUP6 LT ISZERO PUSH2 0xA6B JUMPI DUP2 SWAP1 POP JUMPDEST PUSH2 0xA7F PUSH2 0xA77 DUP6 PUSH2 0x93C JUMP JUMPDEST DUP4 ADD DUP3 PUSH2 0xA1F JUMP JUMPDEST POP POP JUMPDEST POP POP POP JUMP JUMPDEST PUSH0 DUP3 DUP3 SHR SWAP1 POP SWAP3 SWAP2 POP POP JUMP JUMPDEST PUSH0 PUSH2 0xAA2 PUSH0 NOT DUP5 PUSH1 0x8 MUL PUSH2 0xA87 JUMP JUMPDEST NOT DUP1 DUP4 AND SWAP2 POP POP SWAP3 SWAP2 POP POP JUMP JUMPDEST PUSH0 PUSH2 0xABA DUP4 DUP4 PUSH2 0xA93 JUMP JUMPDEST SWAP2 POP DUP3 PUSH1 0x2 MUL DUP3 OR SWAP1 POP SWAP3 SWAP2 POP POP JUMP JUMPDEST PUSH2 0xAD3 DUP3 PUSH2 0x745 JUMP JUMPDEST PUSH8 0xFFFFFFFFFFFFFFFF DUP2 GT ISZERO PUSH2 0xAEC JUMPI PUSH2 0xAEB PUSH2 0x503 JUMP JUMPDEST JUMPDEST PUSH2 0xAF6 DUP3 SLOAD PUSH2 0x8FA JUMP JUMPDEST PUSH2 0xB01 DUP3 DUP3 DUP6 PUSH2 0xA41 JUMP JUMPDEST PUSH0 PUSH1 0x20 SWAP1 POP PUSH1 0x1F DUP4 GT PUSH1 0x1 DUP2 EQ PUSH2 0xB32 JUMPI PUSH0 DUP5 ISZERO PUSH2 0xB20 JUMPI DUP3 DUP8 ADD MLOAD SWAP1 POP JUMPDEST PUSH2 0xB2A DUP6 DUP3 PUSH2 0xAAF JUMP JUMPDEST DUP7 SSTORE POP PUSH2 0xB91 JUMP JUMPDEST PUSH1 0x1F NOT DUP5 AND PUSH2 0xB40 DUP7 PUSH2 0x92A JUMP JUMPDEST PUSH0 JUMPDEST DUP3 DUP2 LT ISZERO PUSH2 0xB67 JUMPI DUP5 DUP10 ADD MLOAD DUP3 SSTORE PUSH1 0x1 DUP3 ADD SWAP2 POP PUSH1 0x20 DUP6 ADD SWAP5 POP PUSH1 0x20 DUP2 ADD SWAP1 POP PUSH2 0xB42 JUMP JUMPDEST DUP7 DUP4 LT ISZERO PUSH2 0xB84 JUMPI DUP5 DUP10 ADD MLOAD PUSH2 0xB80 PUSH1 0x1F DUP10 AND DUP3 PUSH2 0xA93 JUMP JUMPDEST DUP4 SSTORE POP JUMPDEST PUSH1 0x1 PUSH1 0x2 DUP9 MUL ADD DUP9 SSTORE POP POP POP JUMPDEST POP POP POP POP POP POP JUMP JUMPDEST PUSH0 PUSH1 0x40 DUP3 ADD SWAP1 POP DUP2 DUP2 SUB PUSH0 DUP4 ADD MSTORE PUSH2 0xBB1 DUP2 DUP6 PUSH2 0x76D JUMP JUMPDEST SWAP1 POP PUSH2 0xBC0 PUSH1 0x20 DUP4 ADD DUP5 PUSH2 0x7AE JUMP JUMPDEST SWAP4 SWAP3 POP POP POP JUMP JUMPDEST PUSH32 0x50617469656E7420646F6573206E6F7420657869737400000000000000000000 PUSH0 DUP3 ADD MSTORE POP JUMP JUMPDEST PUSH0 PUSH2 0xBFB PUSH1 0x16 DUP4 PUSH2 0x74F JUMP JUMPDEST SWAP2 POP PUSH2 0xC06 DUP3 PUSH2 0xBC7 JUMP JUMPDEST PUSH1 0x20 DUP3 ADD SWAP1 POP SWAP2 SWAP1 POP JUMP JUMPDEST PUSH0 PUSH1 0x20 DUP3 ADD SWAP1 POP DUP2 DUP2 SUB PUSH0 DUP4 ADD MSTORE PUSH2 0xC28 DUP2 PUSH2 0xBEF JUMP JUMPDEST SWAP1 POP SWAP2 SWAP1 POP JUMP INVALID LOG2 PUSH5 0x6970667358 0x22 SLT KECCAK256 CALLCODE 0xD2 PUSH19 0xC1ABFB117C6590720BFB2C9EDC4C35FD0E9743 OR PUSH0 RJUMPI 0x3451 PUSH32 0xD95B2EF864736F6C634300081E00330000000000000000000000000000000000 "
    },
    "gasEstimates": {
      "creation": {
        "codeDepositCost": "634600",
        "executionCost": "668",
        "totalCost": "635268"
      },
      "external": {
        "addPatient(string,string,string)": "infinite",
        "getPatient(string)": "infinite",
        "patientDoesExist(string)": "infinite"
      }
    },
    "methodIdentifiers": {
      "addPatient(string,string,string)": "0c380fc9",
      "getPatient(string)": "e79a7a2e",
      "patientDoesExist(string)": "4b96dec1"
    }
  },
  "storageLayout": {
    "storage": [
      {
        "astId": 15,
        "contract": "PatientRecords.sol:PatientRecords",
        "label": "patients",
        "offset": 0,
        "slot": "0",
        "type": "t_mapping(t_string_memory_ptr,t_struct(Patient)10_storage)"
      },
      {
        "astId": 19,
        "contract": "PatientRecords.sol:PatientRecords",
        "label": "patientExists",
        "offset": 0,
        "slot": "1",
        "type": "t_mapping(t_string_memory_ptr,t_bool)"
      }
    ],
    "types": {
      "t_bool": {
        "encoding": "inplace",
        "label": "bool",
        "numberOfBytes": "1"
      },
      "t_mapping(t_string_memory_ptr,t_bool)": {
        "encoding": "mapping",
        "key": "t_string_memory_ptr",
        "label": "mapping(string => bool)",
        "numberOfBytes": "32",
        "value": "t_bool"
      },
      "t_mapping(t_string_memory_ptr,t_struct(Patient)10_storage)": {
        "encoding": "mapping",
        "key": "t_string_memory_ptr",
        "label": "mapping(string => struct PatientRecords.Patient)",
        "numberOfBytes": "32",
        "value": "t_struct(Patient)10_storage"
      },
      "t_string_memory_ptr": {
        "encoding": "bytes",
        "label": "string",
        "numberOfBytes": "32"
      },
      "t_string_storage": {
        "encoding": "bytes",
        "label": "string",
        "numberOfBytes": "32"
      },
      "t_struct(Patient)10_storage": {
        "encoding": "inplace",
        "label": "struct PatientRecords.Patient",
        "members": [
          {
            "astId": 3,
            "contract": "PatientRecords.sol:PatientRecords",
            "label": "id",
            "offset": 0,
            "slot": "0",
            "type": "t_string_storage"
          },
          {
            "astId": 5,
            "contract": "PatientRecords.sol:PatientRecords",
            "label": "name",
            "offset": 0,
            "slot": "1",
            "type": "t_string_storage"
          },
          {
            "astId": 7,
            "contract": "PatientRecords.sol:PatientRecords",
            "label": "diagnosis",
            "offset": 0,
            "slot": "2",
            "type": "t_string_storage"
          },
          {
            "astId": 9,
            "contract": "PatientRecords.sol:PatientRecords",
            "label": "timestamp",
            "offset": 0,
            "slot": "3",
            "type": "t_uint256"
          }
        ],
        "numberOfBytes": "128"
      },
      "t_uint256": {
        "encoding": "inplace",
        "label": "uint256",
        "numberOfBytes": "32"
      }
    }
  },
  "transientStorageLayout": {
    "storage": [],
    "types": null
  },
  "userdoc": {
    "kind": "user",
    "methods": {},
    "version": 1
  }
}