{
  "_format": "hh-sol-artifact-1",
  "contractName": "PatientRecords",
  "sourceName": "contracts/PatientRecords.sol",
  "abi": [
    {
      "anonymous": false,
      "inputs": [
        {
          "indexed": false,
          "internalType": "string",
          "name": "id",
          "type": "string"
        },
        {
          "indexed": false,
          "internalType": "uint256",
          "name": "timestamp",
          "type": "uint256"
        }
      ],
      "name": "PatientAdded",
      "type": "event"
    },
    {
      "inputs": [
        {
          "internalType": "string",
          "name": "_id",
          "type": "string"
        },
        {
          "internalType": "string",
          "name": "_name",
          "type": "string"
        },
        {
          "internalType": "string",
          "name": "_diagnosis",
          "type": "string"
        }
      ],
      "name": "addPatient",
      "outputs": [],
      "stateMutability": "nonpayable",
      "type": "function"
    },
    {
      "inputs": [
        {
          "internalType": "string",
          "name": "_id",
          "type": "string"
        }
      ],
      "name": "getPatient",
      "outputs": [
        {
          "internalType": "string",
          "name": "id",
          "type": "string"
        },
        {
          "internalType": "string",
          "name": "name",
          "type": "string"
        },
        {
          "internalType": "string",
          "name": "diagnosis",
          "type": "string"
        },
        {
          "internalType": "uint256",
          "name": "timestamp",
          "type": "uint256"
        }
      ],
      "stateMutability": "view",
      "type": "function"
    },
    {
      "inputs": [
        {
          "internalType": "string",
          "name": "_id",
          "type": "string"
        }
      ],
      "name": "patientDoesExist",
      "outputs": [
        {
          "internalType": "bool",
          "name": "",
          "type": "bool"
        }
      ],
      "stateMutability": "view",
      "type": "function"
    }
  ],
  "bytecode": "0x608060405234801561001057600080fd5b50610cd1806100206000396000f3fe608060405234801561001057600080fd5b50600436106100415760003560e01c80630c380fc9146100465780634b96dec114610062578063e79a7a2e14610092575b600080fd5b610060600480360381019061005b919061064a565b6100c5565b005b61007c600480360381019061007791906106f1565b610239565b6040516100899190610755565b60405180910390f35b6100ac60048036038101906100a791906106f1565b61026e565b6040516100bc9493929190610808565b60405180910390f35b6001836040516100d5919061089e565b908152602001604051809103902060009054906101000a900460ff1615610131576040517f08c379a000000000000000000000000000000000000000000000000000000000815260040161012890610901565b60405180910390fd5b6000429050604051806080016040528085815260200184815260200183815260200182815250600085604051610167919061089e565b9081526020016040518091039020600082015181600001908161018a9190610b2d565b5060208201518160010190816101a09190610b2d565b5060408201518160020190816101b69190610b2d565b5060608201518160030155905050600180856040516101d5919061089e565b908152602001604051809103902060006101000a81548160ff0219169083151502179055507faaee5e16f938e76ad0568f8a0674f5c0c325d8d5502be320fbeb9e33ff04a0da848260405161022b929190610bff565b60405180910390a150505050565b600060018260405161024b919061089e565b908152602001604051809103902060009054906101000a900460ff169050919050565b60608060606000600185604051610285919061089e565b908152602001604051809103902060009054906101000a900460ff166102e0576040517f08c379a00000000000000000000000000000000000000000000000000000000081526004016102d790610c7b565b60405180910390fd5b600080866040516102f1919061089e565b908152602001604051809103902060405180608001604052908160008201805461031a90610950565b80601f016020809104026020016040519081016040528092919081815260200182805461034690610950565b80156103935780601f1061036857610100808354040283529160200191610393565b820191906000526020600020905b81548152906001019060200180831161037657829003601f168201915b505050505081526020016001820180546103ac90610950565b80601f01602080910402602001604051908101604052809291908181526020018280546103d890610950565b80156104255780601f106103fa57610100808354040283529160200191610425565b820191906000526020600020905b81548152906001019060200180831161040857829003601f168201915b5050505050815260200160028201805461043e90610950565b80601f016020809104026020016040519081016040528092919081815260200182805461046a90610950565b80156104b75780601f1061048c576101008083540402835291602001916104b7565b820191906000526020600020905b81548152906001019060200180831161049a57829003601f168201915b50505050508152602001600382015481525050905080600001518160200151826040015183606001519450945094509450509193509193565b6000604051905090565b600080fd5b600080fd5b600080fd5b600080fd5b6000601f19601f8301169050919050565b7f4e487b7100000000000000000000000000000000000000000000000000000000600052604160045260246000fd5b6105578261050e565b810181811067ffffffffffffffff821117156105765761057561051f565b5b80604052505050565b60006105896104f0565b9050610595828261054e565b919050565b600067ffffffffffffffff8211156105b5576105b461051f565b5b6105be8261050e565b9050602081019050919050565b82818337600083830152505050565b60006105ed6105e88461059a565b61057f565b90508281526020810184848401111561060957610608610509565b5b6106148482856105cb565b509392505050565b600082601f83011261063157610630610504565b5b81356106418482602086016105da565b91505092915050565b600080600060608486031215610663576106626104fa565b5b600084013567ffffffffffffffff811115610681576106806104ff565b5b61068d8682870161061c565b935050602084013567ffffffffffffffff8111156106ae576106ad6104ff565b5b6106ba8682870161061c565b925050604084013567ffffffffffffffff8111156106db576106da6104ff565b5b6106e78682870161061c565b9150509250925092565b600060208284031215610707576107066104fa565b5b600082013567ffffffffffffffff811115610725576107246104ff565b5b6107318482850161061c565b91505092915050565b60008115159050919050565b61074f8161073a565b82525050565b600060208201905061076a6000830184610746565b92915050565b600081519050919050565b600082825260208201905092915050565b60005b838110156107aa57808201518184015260208101905061078f565b60008484015250505050565b60006107c182610770565b6107cb818561077b565b93506107db81856020860161078c565b6107e48161050e565b840191505092915050565b6000819050919050565b610802816107ef565b82525050565b6000608082019050818103600083015261082281876107b6565b9050818103602083015261083681866107b6565b9050818103604083015261084a81856107b6565b905061085960608301846107f9565b95945050505050565b600081905092915050565b600061087882610770565b6108828185610862565b935061089281856020860161078c565b80840191505092915050565b60006108aa828461086d565b915081905092915050565b7f50617469656e7420616c72656164792065786973747300000000000000000000600082015250565b60006108eb60168361077b565b91506108f6826108b5565b602082019050919050565b6000602082019050818103600083015261091a816108de565b9050919050565b7f4e487b7100000000000000000000000000000000000000000000000000000000600052602260045260246000fd5b6000600282049050600182168061096857607f821691505b60208210810361097b5761097a610921565b5b50919050565b60008190508160005260206000209050919050565b60006020601f8301049050919050565b600082821b905092915050565b6000600883026109e37fffffffffffffffffffffffffffffffffffffffffffffffffffffffffffffffff826109a6565b6109ed86836109a6565b95508019841693508086168417925050509392505050565b6000819050919050565b6000610a2a610a25610a20846107ef565b610a05565b6107ef565b9050919050565b6000819050919050565b610a4483610a0f565b610a58610a5082610a31565b8484546109b3565b825550505050565b600090565b610a6d610a60565b610a78818484610a3b565b505050565b5b81811015610a9c57610a91600082610a65565b600181019050610a7e565b5050565b601f821115610ae157610ab281610981565b610abb84610996565b81016020851015610aca578190505b610ade610ad685610996565b830182610a7d565b50505b505050565b600082821c905092915050565b6000610b0460001984600802610ae6565b1980831691505092915050565b6000610b1d8383610af3565b9150826002028217905092915050565b610b3682610770565b67ffffffffffffffff811115610b4f57610b4e61051f565b5b610b598254610950565b610b64828285610aa0565b600060209050601f831160018114610b975760008415610b85578287015190505b610b8f8582610b11565b865550610bf7565b601f198416610ba586610981565b60005b82811015610bcd57848901518255600182019150602085019450602081019050610ba8565b86831015610bea5784890151610be6601f891682610af3565b8355505b6001600288020188555050505b505050505050565b60006040820190508181036000830152610c1981856107b6565b9050610c2860208301846107f9565b9392505050565b7f50617469656e7420646f6573206e6f7420657869737400000000000000000000600082015250565b6000610c6560168361077b565b9150610c7082610c2f565b602082019050919050565b60006020820190508181036000830152610c9481610c58565b905091905056fea26469706673582212209058c18fcce9d6db182ae7dd47eb38edfa26c88ec6d9ec5e4147ba02fe4c97fe64736f6c63430008150033",
  "linkReferences": {},
  "deployedLinkReferences": {}
}